{
  "address": "0x2600a57481C655dd6264f6a91A550504B800B261",
  "abi": [
    {
      "inputs": [
        {
          "internalType": "address",
          "name": "token_",
          "type": "address"
        }
      ],
      "stateMutability": "nonpayable",
      "type": "constructor"
    },
    {
      "anonymous": false,
      "inputs": [
        {
          "indexed": true,
          "internalType": "address",
          "name": "previousOwner",
          "type": "address"
        },
        {
          "indexed": true,
          "internalType": "address",
          "name": "newOwner",
          "type": "address"
        }
      ],
      "name": "OwnershipTransferred",
      "type": "event"
    },
    {
      "anonymous": false,
      "inputs": [
        {
          "indexed": false,
          "internalType": "uint256",
          "name": "amount",
          "type": "uint256"
        }
      ],
      "name": "Released",
      "type": "event"
    },
    {
      "anonymous": false,
      "inputs": [],
      "name": "Revoked",
      "type": "event"
    },
    {
      "anonymous": false,
      "inputs": [
        {
          "indexed": false,
          "internalType": "address",
          "name": "beneficiary",
          "type": "address"
        },
        {
          "indexed": false,
          "internalType": "bytes32",
          "name": "vestingScheduleId",
          "type": "bytes32"
        }
      ],
      "name": "VestingScheduleCreated",
      "type": "event"
    },
    {
      "inputs": [],
      "name": "allIncomingDepositsFinalised",
      "outputs": [
        {
          "internalType": "bool",
          "name": "",
          "type": "bool"
        }
      ],
      "stateMutability": "view",
      "type": "function"
    },
    {
      "inputs": [
        {
          "internalType": "address",
          "name": "holder",
          "type": "address"
        }
      ],
      "name": "computeNextVestingScheduleIdForHolder",
      "outputs": [
        {
          "internalType": "bytes32",
          "name": "",
          "type": "bytes32"
        }
      ],
      "stateMutability": "view",
      "type": "function"
    },
    {
      "inputs": [
        {
          "internalType": "bytes32",
          "name": "vestingScheduleId",
          "type": "bytes32"
        }
      ],
      "name": "computeReleasableAmount",
      "outputs": [
        {
          "internalType": "uint256",
          "name": "",
          "type": "uint256"
        }
      ],
      "stateMutability": "view",
      "type": "function"
    },
    {
      "inputs": [
        {
          "internalType": "address",
          "name": "holder",
          "type": "address"
        },
        {
          "internalType": "uint256",
          "name": "index",
          "type": "uint256"
        }
      ],
      "name": "computeVestingScheduleIdForAddressAndIndex",
      "outputs": [
        {
          "internalType": "bytes32",
          "name": "",
          "type": "bytes32"
        }
      ],
      "stateMutability": "pure",
      "type": "function"
    },
    {
      "inputs": [
        {
          "internalType": "address",
          "name": "_beneficiary",
          "type": "address"
        },
        {
          "internalType": "uint256",
          "name": "_cliff",
          "type": "uint256"
        },
        {
          "internalType": "uint256",
          "name": "_duration",
          "type": "uint256"
        },
        {
          "internalType": "uint256",
          "name": "_slicePeriodSeconds",
          "type": "uint256"
        },
        {
          "internalType": "bool",
          "name": "_revocable",
          "type": "bool"
        },
        {
          "internalType": "uint256",
          "name": "_amount",
          "type": "uint256"
        },
        {
          "internalType": "uint256",
          "name": "_tge",
          "type": "uint256"
        }
      ],
      "name": "createVestingSchedule",
      "outputs": [],
      "stateMutability": "nonpayable",
      "type": "function"
    },
    {
      "inputs": [
        {
          "internalType": "address[]",
          "name": "_beneficiaries",
          "type": "address[]"
        },
        {
          "internalType": "uint256[]",
          "name": "_cliffs",
          "type": "uint256[]"
        },
        {
          "internalType": "uint256[]",
          "name": "_durations",
          "type": "uint256[]"
        },
        {
          "internalType": "uint256[]",
          "name": "_slicePeriodSeconds",
          "type": "uint256[]"
        },
        {
          "internalType": "bool[]",
          "name": "_revocables",
          "type": "bool[]"
        },
        {
          "internalType": "uint256[]",
          "name": "_amounts",
          "type": "uint256[]"
        },
        {
          "internalType": "uint256[]",
          "name": "_tges",
          "type": "uint256[]"
        }
      ],
      "name": "createVestingSchedule",
      "outputs": [],
      "stateMutability": "nonpayable",
      "type": "function"
    },
    {
      "inputs": [],
      "name": "getCurrentTime",
      "outputs": [
        {
          "internalType": "uint256",
          "name": "",
          "type": "uint256"
        }
      ],
      "stateMutability": "view",
      "type": "function"
    },
    {
      "inputs": [
        {
          "internalType": "address",
          "name": "holder",
          "type": "address"
        }
      ],
      "name": "getLastVestingScheduleForHolder",
      "outputs": [
        {
          "components": [
            {
              "internalType": "bool",
              "name": "initialized",
              "type": "bool"
            },
            {
              "internalType": "address",
              "name": "beneficiary",
              "type": "address"
            },
            {
              "internalType": "uint256",
              "name": "cliff",
              "type": "uint256"
            },
            {
              "internalType": "uint256",
              "name": "duration",
              "type": "uint256"
            },
            {
              "internalType": "uint256",
              "name": "slicePeriodSeconds",
              "type": "uint256"
            },
            {
              "internalType": "bool",
              "name": "revocable",
              "type": "bool"
            },
            {
              "internalType": "uint256",
              "name": "amountTotal",
              "type": "uint256"
            },
            {
              "internalType": "uint256",
              "name": "released",
              "type": "uint256"
            },
            {
              "internalType": "bool",
              "name": "revoked",
              "type": "bool"
            },
            {
              "internalType": "uint256",
              "name": "tge",
              "type": "uint256"
            }
          ],
          "internalType": "struct TokenPreVesting.VestingSchedule",
          "name": "",
          "type": "tuple"
        }
      ],
      "stateMutability": "view",
      "type": "function"
    },
    {
      "inputs": [],
      "name": "getToken",
      "outputs": [
        {
          "internalType": "address",
          "name": "",
          "type": "address"
        }
      ],
      "stateMutability": "view",
      "type": "function"
    },
    {
      "inputs": [
        {
          "internalType": "uint256",
          "name": "index",
          "type": "uint256"
        }
      ],
      "name": "getVestingIdAtIndex",
      "outputs": [
        {
          "internalType": "bytes32",
          "name": "",
          "type": "bytes32"
        }
      ],
      "stateMutability": "view",
      "type": "function"
    },
    {
      "inputs": [
        {
          "internalType": "bytes32",
          "name": "vestingScheduleId",
          "type": "bytes32"
        }
      ],
      "name": "getVestingSchedule",
      "outputs": [
        {
          "components": [
            {
              "internalType": "bool",
              "name": "initialized",
              "type": "bool"
            },
            {
              "internalType": "address",
              "name": "beneficiary",
              "type": "address"
            },
            {
              "internalType": "uint256",
              "name": "cliff",
              "type": "uint256"
            },
            {
              "internalType": "uint256",
              "name": "duration",
              "type": "uint256"
            },
            {
              "internalType": "uint256",
              "name": "slicePeriodSeconds",
              "type": "uint256"
            },
            {
              "internalType": "bool",
              "name": "revocable",
              "type": "bool"
            },
            {
              "internalType": "uint256",
              "name": "amountTotal",
              "type": "uint256"
            },
            {
              "internalType": "uint256",
              "name": "released",
              "type": "uint256"
            },
            {
              "internalType": "bool",
              "name": "revoked",
              "type": "bool"
            },
            {
              "internalType": "uint256",
              "name": "tge",
              "type": "uint256"
            }
          ],
          "internalType": "struct TokenPreVesting.VestingSchedule",
          "name": "",
          "type": "tuple"
        }
      ],
      "stateMutability": "view",
      "type": "function"
    },
    {
      "inputs": [
        {
          "internalType": "address",
          "name": "holder",
          "type": "address"
        },
        {
          "internalType": "uint256",
          "name": "index",
          "type": "uint256"
        }
      ],
      "name": "getVestingScheduleByAddressAndIndex",
      "outputs": [
        {
          "components": [
            {
              "internalType": "bool",
              "name": "initialized",
              "type": "bool"
            },
            {
              "internalType": "address",
              "name": "beneficiary",
              "type": "address"
            },
            {
              "internalType": "uint256",
              "name": "cliff",
              "type": "uint256"
            },
            {
              "internalType": "uint256",
              "name": "duration",
              "type": "uint256"
            },
            {
              "internalType": "uint256",
              "name": "slicePeriodSeconds",
              "type": "uint256"
            },
            {
              "internalType": "bool",
              "name": "revocable",
              "type": "bool"
            },
            {
              "internalType": "uint256",
              "name": "amountTotal",
              "type": "uint256"
            },
            {
              "internalType": "uint256",
              "name": "released",
              "type": "uint256"
            },
            {
              "internalType": "bool",
              "name": "revoked",
              "type": "bool"
            },
            {
              "internalType": "uint256",
              "name": "tge",
              "type": "uint256"
            }
          ],
          "internalType": "struct TokenPreVesting.VestingSchedule",
          "name": "",
          "type": "tuple"
        }
      ],
      "stateMutability": "view",
      "type": "function"
    },
    {
      "inputs": [],
      "name": "getVestingSchedulesCount",
      "outputs": [
        {
          "internalType": "uint256",
          "name": "",
          "type": "uint256"
        }
      ],
      "stateMutability": "view",
      "type": "function"
    },
    {
      "inputs": [
        {
          "internalType": "address",
          "name": "_beneficiary",
          "type": "address"
        }
      ],
      "name": "getVestingSchedulesCountByBeneficiary",
      "outputs": [
        {
          "internalType": "uint256",
          "name": "",
          "type": "uint256"
        }
      ],
      "stateMutability": "view",
      "type": "function"
    },
    {
      "inputs": [],
      "name": "getVestingSchedulesTotalAmount",
      "outputs": [
        {
          "internalType": "uint256",
          "name": "",
          "type": "uint256"
        }
      ],
      "stateMutability": "view",
      "type": "function"
    },
    {
      "inputs": [],
      "name": "getWithdrawableAmount",
      "outputs": [
        {
          "internalType": "uint256",
          "name": "",
          "type": "uint256"
        }
      ],
      "stateMutability": "view",
      "type": "function"
    },
    {
      "inputs": [],
      "name": "initialTimestamp",
      "outputs": [
        {
          "internalType": "uint256",
          "name": "",
          "type": "uint256"
        }
      ],
      "stateMutability": "view",
      "type": "function"
    },
    {
      "inputs": [],
      "name": "owner",
      "outputs": [
        {
          "internalType": "address",
          "name": "",
          "type": "address"
        }
      ],
      "stateMutability": "view",
      "type": "function"
    },
    {
      "inputs": [
        {
          "internalType": "bytes32",
          "name": "vestingScheduleId",
          "type": "bytes32"
        },
        {
          "internalType": "uint256",
          "name": "amount",
          "type": "uint256"
        }
      ],
      "name": "release",
      "outputs": [],
      "stateMutability": "nonpayable",
      "type": "function"
    },
    {
      "inputs": [],
      "name": "renounceOwnership",
      "outputs": [],
      "stateMutability": "nonpayable",
      "type": "function"
    },
    {
      "inputs": [
        {
          "internalType": "bytes32",
          "name": "vestingScheduleId",
          "type": "bytes32"
        }
      ],
      "name": "revoke",
      "outputs": [],
      "stateMutability": "nonpayable",
      "type": "function"
    },
    {
      "inputs": [
        {
          "internalType": "uint256",
          "name": "_timePeriodInSeconds",
          "type": "uint256"
        }
      ],
      "name": "setTimestamp",
      "outputs": [],
      "stateMutability": "nonpayable",
      "type": "function"
    },
    {
      "inputs": [],
      "name": "start",
      "outputs": [
        {
          "internalType": "uint256",
          "name": "",
          "type": "uint256"
        }
      ],
      "stateMutability": "view",
      "type": "function"
    },
    {
      "inputs": [],
      "name": "timestampSet",
      "outputs": [
        {
          "internalType": "bool",
          "name": "",
          "type": "bool"
        }
      ],
      "stateMutability": "view",
      "type": "function"
    },
    {
      "inputs": [
        {
          "internalType": "address",
          "name": "newOwner",
          "type": "address"
        }
      ],
      "name": "transferOwnership",
      "outputs": [],
      "stateMutability": "nonpayable",
      "type": "function"
    },
    {
      "inputs": [
        {
          "internalType": "uint256",
          "name": "amount",
          "type": "uint256"
        }
      ],
      "name": "withdraw",
      "outputs": [],
      "stateMutability": "nonpayable",
      "type": "function"
    }
  ],
  "transactionHash": "0xb3eb63d0ca44fa09795dfe7b271da313ca0a7b17b518e86c979fc760ce14ffac",
  "args": [
    "0x31640330cd2337e57c9591a2a183ac4e8a754e87"
  ],
  "numDeployments": 1,
  "bytecode": "0x60a06040523480156200001157600080fd5b50604051620027a1380380620027a1833981016040819052620000349162000113565b6200003f33620000c3565b600180556001600160a01b038116620000ad5760405162461bcd60e51b815260206004820152602660248201527f546f6b656e50726556657374696e673a20746f6b656e2061646472657373206960448201526573207a65726f60d01b606482015260840160405180910390fd5b426003556001600160a01b031660805262000145565b600080546001600160a01b038381166001600160a01b0319831681178455604051919092169283917f8be0079c531659141344cd1fd0a4f28419497f9722a3daafe3b4186f6b6457e09190a35050565b6000602082840312156200012657600080fd5b81516001600160a01b03811681146200013e57600080fd5b9392505050565b60805161262b62000176600039600081816101cc0152818161060901528181610f57015261114e015261262b6000f3fe608060405234801561001057600080fd5b50600436106101ae5760003560e01c806390be10cc116100ee578063d1f3c24d11610097578063f2fde38b11610071578063f2fde38b146103ac578063f51321d7146103bf578063f7c469f0146103d2578063f9079b371461043a57600080fd5b8063d1f3c24d1461037d578063d6d1417114610390578063ea1bb3d51461039957600080fd5b8063a0a2b573116100c8578063a0a2b5731461034e578063b75c7dc614610361578063be9a65551461037457600080fd5b806390be10cc146103215780639b69279a146103295780639ef346b41461033b57600080fd5b806355ce38661161015b578063715018a611610135578063715018a6146102935780637e913dc61461029b5780638af104da146102bb5780638da5cb5b1461031057600080fd5b806355ce38661461023a5780635a7bb69a1461025757806366afd8ef1461028057600080fd5b80632e1a7d4d1161018c5780632e1a7d4d1461020a57806348deb4711461021f578063530ff4e51461022757600080fd5b806313083617146101b357806321df0da7146101ca57806329cb924d14610204575b600080fd5b6005545b6040519081526020015b60405180910390f35b7f00000000000000000000000000000000000000000000000000000000000000005b6040516001600160a01b0390911681526020016101c1565b426101b7565b61021d61021836600461209a565b61044d565b005b6006546101b7565b61021d6102353660046120dd565b610637565b6002546102479060ff1681565b60405190151581526020016101c1565b6101b7610265366004612143565b6001600160a01b031660009081526008602052604090205490565b61021d61028e36600461215e565b610be3565b61021d610f8c565b6102ae6102a9366004612143565b610ff2565b6040516101c19190612180565b6101b76102c9366004612211565b6040516bffffffffffffffffffffffff19606084901b1660208201526034810182905260009060540160405160208183030381529060405280519060200120905092915050565b6000546001600160a01b03166101ec565b6101b7611127565b60025461024790610100900460ff1681565b6102ae61034936600461209a565b6111d3565b61021d61035c36600461209a565b6112d7565b61021d61036f36600461209a565b6113d4565b6101b760045481565b61021d61038b36600461232d565b61169d565b6101b760035481565b6101b76103a736600461209a565b6118e2565b61021d6103ba366004612143565b611a84565b6102ae6103cd366004612211565b611b66565b6101b76103e0366004612143565b6001600160a01b0381166000908152600860209081526040808320548151606086901b6bffffffffffffffffffffffff19168185015260348082019290925282518082039092018252605401909152805191012092915050565b6101b761044836600461209a565b611c1b565b600260015414156104a55760405162461bcd60e51b815260206004820152601f60248201527f5265656e7472616e637947756172643a207265656e7472616e742063616c6c0060448201526064015b60405180910390fd5b60026001556000546001600160a01b031633146105045760405162461bcd60e51b815260206004820181905260248201527f4f776e61626c653a2063616c6c6572206973206e6f7420746865206f776e6572604482015260640161049c565b80306001600160a01b03166390be10cc6040518163ffffffff1660e01b815260040160206040518083038186803b15801561053e57600080fd5b505afa158015610552573d6000803e3d6000fd5b505050506040513d601f19601f820116820180604052508101906105769190612495565b10156105ea5760405162461bcd60e51b815260206004820152602e60248201527f546f6b656e50726556657374696e673a206e6f7420656e6f756768207769746860448201527f6472617761626c652066756e6473000000000000000000000000000000000000606482015260840161049c565b6106306105ff6000546001600160a01b031690565b6001600160a01b037f0000000000000000000000000000000000000000000000000000000000000000169083611ca5565b5060018055565b60025460ff16156106b05760405162461bcd60e51b815260206004820152603760248201527f546f6b656e50726556657374696e673a20496e636f6d696e67206465706f736960448201527f74732068617665206265656e2066696e616c697365642e000000000000000000606482015260840161049c565b6000546001600160a01b0316331461070a5760405162461bcd60e51b815260206004820181905260248201527f4f776e61626c653a2063616c6c6572206973206e6f7420746865206f776e6572604482015260640161049c565b81306001600160a01b03166390be10cc6040518163ffffffff1660e01b815260040160206040518083038186803b15801561074457600080fd5b505afa158015610758573d6000803e3d6000fd5b505050506040513d601f19601f8201168201806040525081019061077c9190612495565b10156108165760405162461bcd60e51b815260206004820152604d60248201527f546f6b656e50726556657374696e673a2063616e6e6f7420637265617465207660448201527f657374696e67207363686564756c652062656361757365206e6f74207375666660648201527f696369656e7420746f6b656e7300000000000000000000000000000000000000608482015260a40161049c565b6000851161088c5760405162461bcd60e51b815260206004820152602560248201527f546f6b656e50726556657374696e673a206475726174696f6e206d757374206260448201527f65203e2030000000000000000000000000000000000000000000000000000000606482015260840161049c565b600082116108e85760405162461bcd60e51b815260206004820152602360248201527f546f6b656e50726556657374696e673a20616d6f756e74206d7573742062652060448201526203e20360ec1b606482015260840161049c565b600184101561095f5760405162461bcd60e51b815260206004820152603060248201527f546f6b656e50726556657374696e673a20736c696365506572696f645365636f60448201527f6e6473206d757374206265203e3d203100000000000000000000000000000000606482015260840161049c565b604051630f7c469f60e41b81526001600160a01b0388166004820152600090309063f7c469f09060240160206040518083038186803b1580156109a157600080fd5b505afa1580156109b5573d6000803e3d6000fd5b505050506040513d601f19601f820116820180604052508101906109d99190612495565b9050604051806101400160405280600115158152602001896001600160a01b03168152602001888152602001878152602001868152602001851515815260200184815260200160008152602001600015158152602001838152506007600083815260200190815260200160002060008201518160000160006101000a81548160ff02191690831515021790555060208201518160000160016101000a8154816001600160a01b0302191690836001600160a01b0316021790555060408201518160010155606082015181600201556080820151816003015560a08201518160040160006101000a81548160ff02191690831515021790555060c0820151816005015560e082015181600601556101008201518160070160006101000a81548160ff0219169083151502179055506101208201518160080155905050610b2983600654611d1190919063ffffffff16565b6006556005805460018181019092557f036b6384b5eca791c62761152d0c79bb0604c104a5fb6f4eb0703f3154bb3db0018290556001600160a01b03891660009081526008602052604090205490610b82908290611d11565b6001600160a01b038a166000818152600860209081526040918290209390935580519182529181018490527f054b7a1afdd1e502e9103592f08509d192ea86fccca863e13933ee2e0bcaed2e910160405180910390a1505050505050505050565b60026001541415610c365760405162461bcd60e51b815260206004820152601f60248201527f5265656e7472616e637947756172643a207265656e7472616e742063616c6c00604482015260640161049c565b60026001908155600083815260076020526040902054839160ff909116151514610cbc5760405162461bcd60e51b815260206004820152603160248201527f546f6b656e50726556657374696e673a2056657374696e67207363686564756c6044820152706520646f6573206e6f742065786973747360781b606482015260840161049c565b6000818152600760208190526040909120015460ff1615610d345760405162461bcd60e51b815260206004820152602c60248201527f546f6b656e50726556657374696e673a2056657374696e67207363686564756c60448201526b19481a5cc81c995d9bdad95960a21b606482015260840161049c565b6000838152600760205260408120805491549091336001600160a01b03610100909204821681149291909116148180610d6a5750805b610e025760405162461bcd60e51b815260206004820152604560248201527f546f6b656e50726556657374696e673a206f6e6c792062656e6566696369617260448201527f7920616e64206f776e65722063616e2072656c6561736520766573746564207460648201527f6f6b656e73000000000000000000000000000000000000000000000000000000608482015260a40161049c565b6040805161014081018252845460ff808216151583526001600160a01b0361010092839004166020840152600187015493830193909352600286015460608301526003860154608083015260048601548316151560a0830152600586015460c0830152600686015460e083015260078601549092161515918101919091526008840154610120820152600090610e9790611d1d565b905085811015610f11576040805162461bcd60e51b81526020600482015260248101919091527f546f6b656e50726556657374696e673a2063616e6e6f742072656c656173652060448201527f746f6b656e732c206e6f7420656e6f7567682076657374656420746f6b656e73606482015260840161049c565b6006840154610f209087611d11565b600685810191909155845490546101009091046001600160a01b031690610f479088611e1e565b600655610f7e6001600160a01b037f0000000000000000000000000000000000000000000000000000000000000000168289611ca5565b505060018055505050505050565b6000546001600160a01b03163314610fe65760405162461bcd60e51b815260206004820181905260248201527f4f776e61626c653a2063616c6c6572206973206e6f7420746865206f776e6572604482015260640161049c565b610ff06000611e2a565b565b61105760405180610140016040528060001515815260200160006001600160a01b031681526020016000815260200160008152602001600081526020016000151581526020016000815260200160008152602001600015158152602001600081525090565b6001600160a01b038216600090815260086020526040812054600791906110869085906102c9906001906124c4565b81526020808201929092526040908101600020815161014081018352815460ff808216151583526001600160a01b03610100928390041695830195909552600183015493820193909352600282015460608201526003820154608082015260048201548416151560a0820152600582015460c0820152600682015460e082015260078201549093161515918301919091526008015461012082015292915050565b6006546040516370a0823160e01b81523060048201526000916111ce916001600160a01b037f000000000000000000000000000000000000000000000000000000000000000016906370a082319060240160206040518083038186803b15801561119057600080fd5b505afa1580156111a4573d6000803e3d6000fd5b505050506040513d601f19601f820116820180604052508101906111c89190612495565b90611e1e565b905090565b61123860405180610140016040528060001515815260200160006001600160a01b031681526020016000815260200160008152602001600081526020016000151581526020016000815260200160008152602001600015158152602001600081525090565b50600090815260076020818152604092839020835161014081018552815460ff808216151583526001600160a01b03610100928390041694830194909452600183015495820195909552600282015460608201526003820154608082015260048201548316151560a0820152600582015460c0820152600682015460e08201529281015490911615159282019290925260089091015461012082015290565b6000546001600160a01b031633146113315760405162461bcd60e51b815260206004820181905260248201527f4f776e61626c653a2063616c6c6572206973206e6f7420746865206f776e6572604482015260640161049c565b600254610100900460ff16156113af5760405162461bcd60e51b815260206004820152602860248201527f546f6b656e50726556657374696e673a206c61756e63682074696d657374616d60448201527f7020697320736574000000000000000000000000000000000000000000000000606482015260840161049c565b6002805461ffff19166101011790554260038190556113ce9082611d11565b60045550565b6000546001600160a01b0316331461142e5760405162461bcd60e51b815260206004820181905260248201527f4f776e61626c653a2063616c6c6572206973206e6f7420746865206f776e6572604482015260640161049c565b600081815260076020526040902054819060ff1615156001146114ad5760405162461bcd60e51b815260206004820152603160248201527f546f6b656e50726556657374696e673a2056657374696e67207363686564756c6044820152706520646f6573206e6f742065786973747360781b606482015260840161049c565b6000818152600760208190526040909120015460ff16156115255760405162461bcd60e51b815260206004820152602c60248201527f546f6b656e50726556657374696e673a2056657374696e67207363686564756c60448201526b19481a5cc81c995d9bdad95960a21b606482015260840161049c565b6000828152600760205260409020600481015460ff1615156001146115b25760405162461bcd60e51b815260206004820152602960248201527f546f6b656e50726556657374696e673a2076657374696e67206973206e6f742060448201527f7265766f6361626c650000000000000000000000000000000000000000000000606482015260840161049c565b6040805161014081018252825460ff808216151583526001600160a01b0361010092839004166020840152600185015493830193909352600284015460608301526003840154608083015260048401548316151560a0830152600584015460c0830152600684015460e08301526007840154909216151591810191909152600882015461012082015260009061164790611d1d565b90508015611659576116598482610be3565b600061167683600601548460050154611e1e90919063ffffffff16565b6006549091506116869082611e1e565b6006555050600701805460ff191660011790555050565b60025460ff16156117165760405162461bcd60e51b815260206004820152603760248201527f546f6b656e50726556657374696e673a20496e636f6d696e67206465706f736960448201527f74732068617665206265656e2066696e616c697365642e000000000000000000606482015260840161049c565b6000546001600160a01b031633146117705760405162461bcd60e51b815260206004820181905260248201527f4f776e61626c653a2063616c6c6572206973206e6f7420746865206f776e6572604482015260640161049c565b8a8714801561177e57508685145b801561178957508483145b80156117955750815183145b6117e15760405162461bcd60e51b815260206004820181905260248201527f546f6b656e50726556657374696e673a204c656e677468206d69736d61746368604482015260640161049c565b60005b8b8110156118d3576118c18d8d83818110611801576118016124db565b90506020020160208101906118169190612143565b8c8c84818110611828576118286124db565b905060200201358b8b85818110611841576118416124db565b905060200201358a8a8681811061185a5761185a6124db565b90506020020135898987818110611873576118736124db565b905060200201602081019061188891906124f1565b88878151811061189a5761189a6124db565b60200260200101518888815181106118b4576118b46124db565b6020026020010151610637565b806118cb8161250e565b9150506117e4565b50505050505050505050505050565b600081815260076020526040812054829060ff1615156001146119615760405162461bcd60e51b815260206004820152603160248201527f546f6b656e50726556657374696e673a2056657374696e67207363686564756c6044820152706520646f6573206e6f742065786973747360781b606482015260840161049c565b6000818152600760208190526040909120015460ff16156119d95760405162461bcd60e51b815260206004820152602c60248201527f546f6b656e50726556657374696e673a2056657374696e67207363686564756c60448201526b19481a5cc81c995d9bdad95960a21b606482015260840161049c565b600083815260076020818152604092839020835161014081018552815460ff808216151583526001600160a01b03610100928390041694830194909452600183015495820195909552600282015460608201526003820154608082015260048201548316151560a0820152600582015460c0820152600682015460e0820152928101549091161515928201929092526008820154610120820152611a7c90611d1d565b949350505050565b6000546001600160a01b03163314611ade5760405162461bcd60e51b815260206004820181905260248201527f4f776e61626c653a2063616c6c6572206973206e6f7420746865206f776e6572604482015260640161049c565b6001600160a01b038116611b5a5760405162461bcd60e51b815260206004820152602660248201527f4f776e61626c653a206e6577206f776e657220697320746865207a65726f206160448201527f6464726573730000000000000000000000000000000000000000000000000000606482015260840161049c565b611b6381611e2a565b50565b611bcb60405180610140016040528060001515815260200160006001600160a01b031681526020016000815260200160008152602001600081526020016000151581526020016000815260200160008152602001600015158152602001600081525090565b60408051606085901b6bffffffffffffffffffffffff191660208083019190915260348083018690528351808403909101815260549092019092528051910120611c14906111d3565b9392505050565b6000611c2660055490565b8210611c805760405162461bcd60e51b8152602060048201526024808201527f546f6b656e50726556657374696e673a20696e646578206f7574206f6620626f604482015263756e647360e01b606482015260840161049c565b60058281548110611c9357611c936124db565b90600052602060002001549050919050565b604080516001600160a01b038416602482015260448082018490528251808303909101815260649091019091526020810180517bffffffffffffffffffffffffffffffffffffffffffffffffffffffff1663a9059cbb60e01b179052611d0c908490611e92565b505050565b6000611c148284612529565b600254600090610100900460ff16611d3757506000919050565b60408201516004544291611d4b9190611d11565b811080611d5f575061010083015115156001145b15611d6d5750600092915050565b6060830151600454611d7e91611d11565b8110611d975760e083015160c0840151611c1491611e1e565b6000611dae60045483611e1e90919063ffffffff16565b60808501519091506000611dc28383611f77565b90506000611dd08284611f83565b90506000611df98860600151611df3848b60c00151611f8390919063ffffffff16565b90611f77565b9050611e128860e0015182611e1e90919063ffffffff16565b98975050505050505050565b6000611c1482846124c4565b600080546001600160a01b038381167fffffffffffffffffffffffff0000000000000000000000000000000000000000831681178455604051919092169283917f8be0079c531659141344cd1fd0a4f28419497f9722a3daafe3b4186f6b6457e09190a35050565b6000611ee7826040518060400160405280602081526020017f5361666545524332303a206c6f772d6c6576656c2063616c6c206661696c6564815250856001600160a01b0316611f8f9092919063ffffffff16565b805190915015611d0c5780806020019051810190611f059190612541565b611d0c5760405162461bcd60e51b815260206004820152602a60248201527f5361666545524332303a204552433230206f7065726174696f6e20646964206e60448201527f6f74207375636365656400000000000000000000000000000000000000000000606482015260840161049c565b6000611c14828461255e565b6000611c148284612580565b6060611a7c848460008585843b611fe85760405162461bcd60e51b815260206004820152601d60248201527f416464726573733a2063616c6c20746f206e6f6e2d636f6e7472616374000000604482015260640161049c565b600080866001600160a01b0316858760405161200491906125cf565b60006040518083038185875af1925050503d8060008114612041576040519150601f19603f3d011682016040523d82523d6000602084013e612046565b606091505b5091509150612056828286612061565b979650505050505050565b60608315612070575081611c14565b8251156120805782518084602001fd5b8160405162461bcd60e51b815260040161049c91906125eb565b6000602082840312156120ac57600080fd5b5035919050565b80356001600160a01b03811681146120ca57600080fd5b919050565b8015158114611b6357600080fd5b600080600080600080600060e0888a0312156120f857600080fd5b612101886120b3565b96506020880135955060408801359450606088013593506080880135612126816120cf565b9699959850939692959460a0840135945060c09093013592915050565b60006020828403121561215557600080fd5b611c14826120b3565b6000806040838503121561217157600080fd5b50508035926020909101359150565b815115158152610140810160208301516121a560208401826001600160a01b03169052565b5060408301516040830152606083015160608301526080830151608083015260a08301516121d760a084018215159052565b5060c083015160c083015260e083015160e0830152610100808401516122008285018215159052565b505061012092830151919092015290565b6000806040838503121561222457600080fd5b61222d836120b3565b946020939093013593505050565b60008083601f84011261224d57600080fd5b50813567ffffffffffffffff81111561226557600080fd5b6020830191508360208260051b850101111561228057600080fd5b9250929050565b634e487b7160e01b600052604160045260246000fd5b600082601f8301126122ae57600080fd5b8135602067ffffffffffffffff808311156122cb576122cb612287565b8260051b604051601f19603f830116810181811084821117156122f0576122f0612287565b60405293845285810183019383810192508785111561230e57600080fd5b83870191505b8482101561205657813583529183019190830190612314565b60008060008060008060008060008060008060e08d8f03121561234f57600080fd5b67ffffffffffffffff8d35111561236557600080fd5b6123728e8e358f0161223b565b909c509a5067ffffffffffffffff60208e0135111561239057600080fd5b6123a08e60208f01358f0161223b565b909a50985067ffffffffffffffff60408e013511156123be57600080fd5b6123ce8e60408f01358f0161223b565b909850965067ffffffffffffffff60608e013511156123ec57600080fd5b6123fc8e60608f01358f0161223b565b909650945067ffffffffffffffff60808e0135111561241a57600080fd5b61242a8e60808f01358f0161223b565b909450925067ffffffffffffffff60a08e0135111561244857600080fd5b6124588e60a08f01358f0161229d565b915067ffffffffffffffff60c08e0135111561247357600080fd5b6124838e60c08f01358f0161229d565b90509295989b509295989b509295989b565b6000602082840312156124a757600080fd5b5051919050565b634e487b7160e01b600052601160045260246000fd5b6000828210156124d6576124d66124ae565b500390565b634e487b7160e01b600052603260045260246000fd5b60006020828403121561250357600080fd5b8135611c14816120cf565b6000600019821415612522576125226124ae565b5060010190565b6000821982111561253c5761253c6124ae565b500190565b60006020828403121561255357600080fd5b8151611c14816120cf565b60008261257b57634e487b7160e01b600052601260045260246000fd5b500490565b600081600019048311821515161561259a5761259a6124ae565b500290565b60005b838110156125ba5781810151838201526020016125a2565b838111156125c9576000848401525b50505050565b600082516125e181846020870161259f565b9190910192915050565b602081526000825180602084015261260a81604085016020870161259f565b601f01601f1916919091016040019291505056fea164736f6c6343000809000a"
}