{
  "address": "0xbad683a421AdFeb0703778711De9F70A4f434B32",
  "abi": [
    {
      "inputs": [
        {
          "internalType": "contract IERC20",
          "name": "_token",
          "type": "address"
        },
        {
          "internalType": "address",
          "name": "_usdt",
          "type": "address"
        },
        {
          "internalType": "address",
          "name": "_busd",
          "type": "address"
        }
      ],
      "stateMutability": "nonpayable",
      "type": "constructor"
    },
    {
      "anonymous": false,
      "inputs": [
        {
          "indexed": true,
          "internalType": "address",
          "name": "previousOwner",
          "type": "address"
        },
        {
          "indexed": true,
          "internalType": "address",
          "name": "newOwner",
          "type": "address"
        }
      ],
      "name": "OwnershipTransferred",
      "type": "event"
    },
    {
      "anonymous": false,
      "inputs": [
        {
          "indexed": false,
          "internalType": "address",
          "name": "buyer",
          "type": "address"
        },
        {
          "indexed": false,
          "internalType": "uint256",
          "name": "amount",
          "type": "uint256"
        }
      ],
      "name": "Sold",
      "type": "event"
    },
    {
      "inputs": [],
      "name": "BUSD",
      "outputs": [
        {
          "internalType": "address",
          "name": "",
          "type": "address"
        }
      ],
      "stateMutability": "view",
      "type": "function"
    },
    {
      "inputs": [],
      "name": "USDT",
      "outputs": [
        {
          "internalType": "address",
          "name": "",
          "type": "address"
        }
      ],
      "stateMutability": "view",
      "type": "function"
    },
    {
      "inputs": [],
      "name": "availableAtTGE",
      "outputs": [
        {
          "internalType": "uint256",
          "name": "",
          "type": "uint256"
        }
      ],
      "stateMutability": "view",
      "type": "function"
    },
    {
      "inputs": [
        {
          "internalType": "uint256",
          "name": "_busdAmount",
          "type": "uint256"
        }
      ],
      "name": "buyTokensUsingBUSD",
      "outputs": [],
      "stateMutability": "nonpayable",
      "type": "function"
    },
    {
      "inputs": [
        {
          "internalType": "uint256",
          "name": "_usdtAmount",
          "type": "uint256"
        }
      ],
      "name": "buyTokensUsingUSDT",
      "outputs": [],
      "stateMutability": "nonpayable",
      "type": "function"
    },
    {
      "inputs": [],
      "name": "cliff",
      "outputs": [
        {
          "internalType": "uint256",
          "name": "",
          "type": "uint256"
        }
      ],
      "stateMutability": "view",
      "type": "function"
    },
    {
      "inputs": [],
      "name": "coinsSold",
      "outputs": [
        {
          "internalType": "uint256",
          "name": "",
          "type": "uint256"
        }
      ],
      "stateMutability": "view",
      "type": "function"
    },
    {
      "inputs": [
        {
          "internalType": "uint256",
          "name": "_busdAmount",
          "type": "uint256"
        }
      ],
      "name": "computeTokensForBUSD",
      "outputs": [
        {
          "internalType": "uint256",
          "name": "",
          "type": "uint256"
        }
      ],
      "stateMutability": "view",
      "type": "function"
    },
    {
      "inputs": [
        {
          "internalType": "uint256",
          "name": "_usdtAmount",
          "type": "uint256"
        }
      ],
      "name": "computeTokensForUSDT",
      "outputs": [
        {
          "internalType": "uint256",
          "name": "",
          "type": "uint256"
        }
      ],
      "stateMutability": "view",
      "type": "function"
    },
    {
      "inputs": [
        {
          "internalType": "address",
          "name": "_beneficiary",
          "type": "address"
        },
        {
          "internalType": "uint256",
          "name": "_start",
          "type": "uint256"
        },
        {
          "internalType": "uint256",
          "name": "_cliff",
          "type": "uint256"
        },
        {
          "internalType": "uint256",
          "name": "_duration",
          "type": "uint256"
        },
        {
          "internalType": "uint256",
          "name": "_slicePeriodSeconds",
          "type": "uint256"
        },
        {
          "internalType": "bool",
          "name": "_revocable",
          "type": "bool"
        },
        {
          "internalType": "uint256",
          "name": "_amount",
          "type": "uint256"
        },
        {
          "internalType": "uint256",
          "name": "_availableAtTGE",
          "type": "uint256"
        }
      ],
      "name": "createVestingSchedule",
      "outputs": [],
      "stateMutability": "nonpayable",
      "type": "function"
    },
    {
      "inputs": [],
      "name": "duration",
      "outputs": [
        {
          "internalType": "uint256",
          "name": "",
          "type": "uint256"
        }
      ],
      "stateMutability": "view",
      "type": "function"
    },
    {
      "inputs": [],
      "name": "endSale",
      "outputs": [],
      "stateMutability": "nonpayable",
      "type": "function"
    },
    {
      "inputs": [],
      "name": "exchangePriceBUSD",
      "outputs": [
        {
          "internalType": "uint256",
          "name": "",
          "type": "uint256"
        }
      ],
      "stateMutability": "view",
      "type": "function"
    },
    {
      "inputs": [],
      "name": "exchangePriceUSDT",
      "outputs": [
        {
          "internalType": "uint256",
          "name": "",
          "type": "uint256"
        }
      ],
      "stateMutability": "view",
      "type": "function"
    },
    {
      "inputs": [],
      "name": "owner",
      "outputs": [
        {
          "internalType": "address",
          "name": "",
          "type": "address"
        }
      ],
      "stateMutability": "view",
      "type": "function"
    },
    {
      "inputs": [],
      "name": "renounceOwnership",
      "outputs": [],
      "stateMutability": "nonpayable",
      "type": "function"
    },
    {
      "inputs": [
        {
          "internalType": "bytes32",
          "name": "vestingScheduleId",
          "type": "bytes32"
        }
      ],
      "name": "revoke",
      "outputs": [],
      "stateMutability": "nonpayable",
      "type": "function"
    },
    {
      "inputs": [],
      "name": "saleStatus",
      "outputs": [
        {
          "internalType": "enum TokenSale.SaleStatus",
          "name": "",
          "type": "uint8"
        }
      ],
      "stateMutability": "view",
      "type": "function"
    },
    {
      "inputs": [
        {
          "internalType": "uint256",
          "name": "_availableAtTGE",
          "type": "uint256"
        }
      ],
      "name": "setAvailableAtTGE",
      "outputs": [],
      "stateMutability": "nonpayable",
      "type": "function"
    },
    {
      "inputs": [
        {
          "internalType": "uint256",
          "name": "_cliff",
          "type": "uint256"
        }
      ],
      "name": "setCliff",
      "outputs": [],
      "stateMutability": "nonpayable",
      "type": "function"
    },
    {
      "inputs": [
        {
          "internalType": "uint256",
          "name": "_duration",
          "type": "uint256"
        }
      ],
      "name": "setDuration",
      "outputs": [],
      "stateMutability": "nonpayable",
      "type": "function"
    },
    {
      "inputs": [
        {
          "internalType": "uint256",
          "name": "_busdPrice",
          "type": "uint256"
        }
      ],
      "name": "setExchangePriceBUSD",
      "outputs": [],
      "stateMutability": "nonpayable",
      "type": "function"
    },
    {
      "inputs": [
        {
          "internalType": "uint256",
          "name": "_usdtPrice",
          "type": "uint256"
        }
      ],
      "name": "setExchangePriceUSDT",
      "outputs": [],
      "stateMutability": "nonpayable",
      "type": "function"
    },
    {
      "inputs": [
        {
          "internalType": "enum TokenSale.SaleStatus",
          "name": "_saleStatus",
          "type": "uint8"
        }
      ],
      "name": "setSaleStatus",
      "outputs": [],
      "stateMutability": "nonpayable",
      "type": "function"
    },
    {
      "inputs": [],
      "name": "token",
      "outputs": [
        {
          "internalType": "contract IERC20",
          "name": "",
          "type": "address"
        }
      ],
      "stateMutability": "view",
      "type": "function"
    },
    {
      "inputs": [
        {
          "internalType": "address",
          "name": "newOwner",
          "type": "address"
        }
      ],
      "name": "transferOwnership",
      "outputs": [],
      "stateMutability": "nonpayable",
      "type": "function"
    },
    {
      "inputs": [],
      "name": "vesting",
      "outputs": [
        {
          "internalType": "contract TokenVesting",
          "name": "",
          "type": "address"
        }
      ],
      "stateMutability": "view",
      "type": "function"
    },
    {
      "inputs": [
        {
          "internalType": "uint256",
          "name": "_amount",
          "type": "uint256"
        }
      ],
      "name": "withdraw",
      "outputs": [],
      "stateMutability": "nonpayable",
      "type": "function"
    },
    {
      "inputs": [],
      "name": "withdrawBUSD",
      "outputs": [],
      "stateMutability": "nonpayable",
      "type": "function"
    },
    {
      "inputs": [],
      "name": "withdrawUSDT",
      "outputs": [],
      "stateMutability": "nonpayable",
      "type": "function"
    }
  ],
  "transactionHash": "0xcc68a5abcbb52da9d9a96fb97aa86953fdc74b2c587eb6b78ffbc5c2b8d3795d",
  "args": [
    "0x32bD1a6FdaeC327B57cdB2CFDe0855AfB3255d7C",
    "0x55d398326f99059ff775485246999027b3197955",
    "0xe9e7cea3dedca5984780bafc599bd69add087d56"
  ],
  "numDeployments": 2,
  "solcInputHash": "cbbcc18f99950e74e323cc8432921e44",
  "bytecode": "0x60c06040526701aa535d3d0c00006003556701aa535d3d0c00006004556276a7006005556302c7ea0060065560c86008553480156200003d57600080fd5b5060405162003eec38038062003eec833981016040819052620000609162000173565b6200006b33620000fc565b600180546001600160a01b0319166001600160a01b0385811691821790925583821660805290821660a052604051620000a4906200014c565b6001600160a01b039091168152602001604051809103906000f080158015620000d1573d6000803e3d6000fd5b50600780546001600160a01b0319166001600160a01b039290921691909117905550620001c7915050565b600080546001600160a01b038381166001600160a01b0319831681178455604051919092169283917f8be0079c531659141344cd1fd0a4f28419497f9722a3daafe3b4186f6b6457e09190a35050565b611e4e806200209e83390190565b6001600160a01b03811681146200017057600080fd5b50565b6000806000606084860312156200018957600080fd5b835162000196816200015a565b6020850151909350620001a9816200015a565b6040850151909250620001bc816200015a565b809150509250925092565b60805160a051611e6b6200023360003960008181610262015281816108c00152818161094c015281816117c70152818161186e015261193a015260008181610354015281816105bf0152818161064b01528181611058015281816110ff01526111cb0152611e6b6000f3fe608060405234801561001057600080fd5b50600436106101da5760003560e01c806387a8f0a711610104578063da499ad0116100a2578063f6be71d111610071578063f6be71d1146103b8578063f9020e33146103cb578063fc0c546a146103e5578063ff4d1f25146103f857600080fd5b8063da499ad014610376578063efd4bde514610389578063f2fde38b14610392578063f3fe4809146103a557600080fd5b80639a99e3c5116100de5780639a99e3c514610316578063b75c7dc614610329578063b937f1e01461033c578063c54e44eb1461034f57600080fd5b806387a8f0a7146102df5780638da5cb5b146102f25780638ddeaf391461030357600080fd5b8063484f4ea91161017c578063715018a61161014b578063715018a6146102a85780637540cd63146102b057806377cdf957146102c35780637a81450c146102d657600080fd5b8063484f4ea91461025d5780634891ad88146102845780634a4a9b02146102975780635b0b8596146102a057600080fd5b80632e1a7d4d116101b85780632e1a7d4d1461020d578063362e496b14610222578063380d831b1461022a57806344c63eec1461023257600080fd5b80630fb5a6b4146101df57806313d033c0146101fb57806325c57cc614610204575b600080fd5b6101e860065481565b6040519081526020015b60405180910390f35b6101e860055481565b6101e860085481565b61022061021b366004611b43565b61040b565b005b61022061055f565b61022061068d565b600754610245906001600160a01b031681565b6040516001600160a01b0390911681526020016101f2565b6102457f000000000000000000000000000000000000000000000000000000000000000081565b610220610292366004611b5c565b6107f2565b6101e860035481565b610220610860565b61022061098b565b6101e86102be366004611b43565b6109df565b6101e86102d1366004611b43565b610a98565b6101e860025481565b6102206102ed366004611ba7565b610b36565b6000546001600160a01b0316610245565b610220610311366004611b43565b610eb3565b610220610324366004611b43565b610f00565b610220610337366004611b43565b610f4d565b61022061034a366004611b43565b610ff6565b6102457f000000000000000000000000000000000000000000000000000000000000000081565b610220610384366004611b43565b61164b565b6101e860045481565b6102206103a0366004611c16565b611698565b6102206103b3366004611b43565b611765565b6102206103c6366004611b43565b611a14565b6009546103d89060ff1681565b6040516101f29190611c47565b600154610245906001600160a01b031681565b610220610406366004611b43565b611a61565b6000546001600160a01b031633146104585760405162461bcd60e51b81526020600482018190526024820152600080516020611e3f83398151915260448201526064015b60405180910390fd5b600754604051632e1a7d4d60e01b8152600481018390526001600160a01b0390911690632e1a7d4d90602401600060405180830381600087803b15801561049e57600080fd5b505af11580156104b2573d6000803e3d6000fd5b50506001546001600160a01b0316915063a9059cbb90506104db6000546001600160a01b031690565b6040516001600160e01b031960e084901b1681526001600160a01b03909116600482015260248101849052604401602060405180830381600087803b15801561052357600080fd5b505af1158015610537573d6000803e3d6000fd5b505050506040513d601f19601f8201168201806040525081019061055b9190611c6f565b5050565b6000546001600160a01b031633146105a75760405162461bcd60e51b81526020600482018190526024820152600080516020611e3f833981519152604482015260640161044f565b6040516370a0823160e01b81523060048201526000907f00000000000000000000000000000000000000000000000000000000000000006001600160a01b0316906370a082319060240160206040518083038186803b15801561060957600080fd5b505afa15801561061d573d6000803e3d6000fd5b505050506040513d601f19601f820116820180604052508101906106419190611c8c565b9050801561068a577f00000000000000000000000000000000000000000000000000000000000000006001600160a01b031663a9059cbb6104db6000546001600160a01b031690565b50565b6000546001600160a01b031633146106d55760405162461bcd60e51b81526020600482018190526024820152600080516020611e3f833981519152604482015260640161044f565b6009805460ff191690556007546040805163242f843360e21b815290516000926001600160a01b0316916390be10cc916004808301926020929190829003018186803b15801561072457600080fd5b505afa158015610738573d6000803e3d6000fd5b505050506040513d601f19601f8201168201806040525081019061075c9190611c8c565b905080156107e2576007546040805163242f843360e21b815290516107e2926001600160a01b0316916390be10cc916004808301926020929190829003018186803b1580156107aa57600080fd5b505afa1580156107be573d6000803e3d6000fd5b505050506040513d601f19601f8201168201806040525081019061021b9190611c8c565b6107ea610860565b61068a61055f565b6000546001600160a01b0316331461083a5760405162461bcd60e51b81526020600482018190526024820152600080516020611e3f833981519152604482015260640161044f565b6009805482919060ff19166001838181111561085857610858611c31565b021790555050565b6000546001600160a01b031633146108a85760405162461bcd60e51b81526020600482018190526024820152600080516020611e3f833981519152604482015260640161044f565b6040516370a0823160e01b81523060048201526000907f00000000000000000000000000000000000000000000000000000000000000006001600160a01b0316906370a082319060240160206040518083038186803b15801561090a57600080fd5b505afa15801561091e573d6000803e3d6000fd5b505050506040513d601f19601f820116820180604052508101906109429190611c8c565b9050801561068a577f00000000000000000000000000000000000000000000000000000000000000006001600160a01b031663a9059cbb6104db6000546001600160a01b031690565b6000546001600160a01b031633146109d35760405162461bcd60e51b81526020600482018190526024820152600080516020611e3f833981519152604482015260640161044f565b6109dd6000611aae565b565b600080600160009054906101000a90046001600160a01b03166001600160a01b031663313ce5676040518163ffffffff1660e01b815260040160206040518083038186803b158015610a3057600080fd5b505afa158015610a44573d6000803e3d6000fd5b505050506040513d601f19601f82011682018060405250810190610a689190611ca5565b60ff16905060045481600a610a7d9190611dc2565b610a879085611dce565b610a919190611ded565b9392505050565b600080600160009054906101000a90046001600160a01b03166001600160a01b031663313ce5676040518163ffffffff1660e01b815260040160206040518083038186803b158015610ae957600080fd5b505afa158015610afd573d6000803e3d6000fd5b505050506040513d601f19601f82011682018060405250810190610b219190611ca5565b60ff16905060035481600a610a7d9190611dc2565b6000546001600160a01b03163314610b7e5760405162461bcd60e51b81526020600482018190526024820152600080516020611e3f833981519152604482015260640161044f565b60015482906001600160a01b031663dd62ed3e610ba36000546001600160a01b031690565b6040516001600160e01b031960e084901b1681526001600160a01b03909116600482015230602482015260440160206040518083038186803b158015610be857600080fd5b505afa158015610bfc573d6000803e3d6000fd5b505050506040513d601f19601f82011682018060405250810190610c209190611c8c565b1015610c2b57600080fd5b604080516001600160a01b038a168152602081018490527fae92ab4b6f8f401ead768d3273e6bb937a13e39827d19c6376e8fd4512a05d9a910160405180910390a18160026000828254610c7f9190611e0f565b9091555060009050610c9d612710610c978585611b16565b90611b2b565b90506000610cab8483611b37565b90508115610d67576001546001600160a01b03166323b872dd610cd66000546001600160a01b031690565b6040516001600160e01b031960e084901b1681526001600160a01b039182166004820152908d16602482015260448101859052606401602060405180830381600087803b158015610d2657600080fd5b505af1158015610d3a573d6000803e3d6000fd5b505050506040513d601f19601f82011682018060405250810190610d5e9190611c6f565b610d6757600080fd5b6001546001600160a01b03166323b872dd610d8a6000546001600160a01b031690565b60075460405160e084901b6001600160e01b03191681526001600160a01b0392831660048201529116602482015260448101849052606401602060405180830381600087803b158015610ddc57600080fd5b505af1158015610df0573d6000803e3d6000fd5b505050506040513d601f19601f82011682018060405250810190610e149190611c6f565b610e1d57600080fd5b6007546040516317e289e960e01b81526001600160a01b038c81166004830152602482018c9052604482018b9052606482018a90526084820189905287151560a483015260c48201849052909116906317e289e99060e401600060405180830381600087803b158015610e8f57600080fd5b505af1158015610ea3573d6000803e3d6000fd5b5050505050505050505050505050565b6000546001600160a01b03163314610efb5760405162461bcd60e51b81526020600482018190526024820152600080516020611e3f833981519152604482015260640161044f565b600355565b6000546001600160a01b03163314610f485760405162461bcd60e51b81526020600482018190526024820152600080516020611e3f833981519152604482015260640161044f565b600855565b6000546001600160a01b03163314610f955760405162461bcd60e51b81526020600482018190526024820152600080516020611e3f833981519152604482015260640161044f565b600754604051635bae3ee360e11b8152600481018390526001600160a01b039091169063b75c7dc690602401600060405180830381600087803b158015610fdb57600080fd5b505af1158015610fef573d6000803e3d6000fd5b5050505050565b600160095460ff16600181111561100f5761100f611c31565b146110405760405162461bcd60e51b81526020600482015260016024820152603160f81b604482015260640161044f565b6040516370a0823160e01b81523060048201526000907f00000000000000000000000000000000000000000000000000000000000000006001600160a01b0316906370a082319060240160206040518083038186803b1580156110a257600080fd5b505afa1580156110b6573d6000803e3d6000fd5b505050506040513d601f19601f820116820180604052508101906110da9190611c8c565b6040516323b872dd60e01b8152336004820152306024820152604481018490529091507f00000000000000000000000000000000000000000000000000000000000000006001600160a01b0316906323b872dd90606401602060405180830381600087803b15801561114b57600080fd5b505af115801561115f573d6000803e3d6000fd5b505050506040513d601f19601f820116820180604052508101906111839190611c6f565b6111b35760405162461bcd60e51b81526020600482015260016024820152601960f91b604482015260640161044f565b6040516370a0823160e01b81523060048201526000907f00000000000000000000000000000000000000000000000000000000000000006001600160a01b0316906370a082319060240160206040518083038186803b15801561121557600080fd5b505afa158015611229573d6000803e3d6000fd5b505050506040513d601f19601f8201168201806040525081019061124d9190611c8c565b9050600061125b8284611b37565b9050683635c9adc5dea0000081101561129a5760405162461bcd60e51b81526020600482015260016024820152603360f81b604482015260640161044f565b60006112a582610a98565b60015490915081906001600160a01b031663dd62ed3e6112cd6000546001600160a01b031690565b6040516001600160e01b031960e084901b1681526001600160a01b03909116600482015230602482015260440160206040518083038186803b15801561131257600080fd5b505afa158015611326573d6000803e3d6000fd5b505050506040513d601f19601f8201168201806040525081019061134a9190611c8c565b101561137c5760405162461bcd60e51b81526020600482015260016024820152600d60fa1b604482015260640161044f565b60408051338152602081018390527fae92ab4b6f8f401ead768d3273e6bb937a13e39827d19c6376e8fd4512a05d9a910160405180910390a180600260008282546113c79190611e0f565b9250508190555060006113eb612710610c9760085485611b1690919063ffffffff16565b905060006113f98383611b37565b905081156114da576001546001600160a01b03166323b872dd6114246000546001600160a01b031690565b6040516001600160e01b031960e084901b1681526001600160a01b03909116600482015233602482015260448101859052606401602060405180830381600087803b15801561147257600080fd5b505af1158015611486573d6000803e3d6000fd5b505050506040513d601f19601f820116820180604052508101906114aa9190611c6f565b6114da5760405162461bcd60e51b81526020600482015260016024820152603560f81b604482015260640161044f565b6001546001600160a01b03166323b872dd6114fd6000546001600160a01b031690565b60075460405160e084901b6001600160e01b03191681526001600160a01b0392831660048201529116602482015260448101849052606401602060405180830381600087803b15801561154f57600080fd5b505af1158015611563573d6000803e3d6000fd5b505050506040513d601f19601f820116820180604052508101906115879190611c6f565b6115b75760405162461bcd60e51b81526020600482015260016024820152601b60f91b604482015260640161044f565b6007546005546006546040516317e289e960e01b81523360048201524260248201526044810192909252606482015260016084820152600060a482015260c481018390526001600160a01b03909116906317e289e99060e401600060405180830381600087803b15801561162a57600080fd5b505af115801561163e573d6000803e3d6000fd5b5050505050505050505050565b6000546001600160a01b031633146116935760405162461bcd60e51b81526020600482018190526024820152600080516020611e3f833981519152604482015260640161044f565b600455565b6000546001600160a01b031633146116e05760405162461bcd60e51b81526020600482018190526024820152600080516020611e3f833981519152604482015260640161044f565b6001600160a01b03811661175c5760405162461bcd60e51b815260206004820152602660248201527f4f776e61626c653a206e6577206f776e657220697320746865207a65726f206160448201527f6464726573730000000000000000000000000000000000000000000000000000606482015260840161044f565b61068a81611aae565b600160095460ff16600181111561177e5761177e611c31565b146117af5760405162461bcd60e51b81526020600482015260016024820152603160f81b604482015260640161044f565b6040516370a0823160e01b81523060048201526000907f00000000000000000000000000000000000000000000000000000000000000006001600160a01b0316906370a082319060240160206040518083038186803b15801561181157600080fd5b505afa158015611825573d6000803e3d6000fd5b505050506040513d601f19601f820116820180604052508101906118499190611c8c565b6040516323b872dd60e01b8152336004820152306024820152604481018490529091507f00000000000000000000000000000000000000000000000000000000000000006001600160a01b0316906323b872dd90606401602060405180830381600087803b1580156118ba57600080fd5b505af11580156118ce573d6000803e3d6000fd5b505050506040513d601f19601f820116820180604052508101906118f29190611c6f565b6119225760405162461bcd60e51b81526020600482015260016024820152601960f91b604482015260640161044f565b6040516370a0823160e01b81523060048201526000907f00000000000000000000000000000000000000000000000000000000000000006001600160a01b0316906370a082319060240160206040518083038186803b15801561198457600080fd5b505afa158015611998573d6000803e3d6000fd5b505050506040513d601f19601f820116820180604052508101906119bc9190611c8c565b905060006119ca8284611b37565b9050683635c9adc5dea00000811015611a095760405162461bcd60e51b81526020600482015260016024820152603360f81b604482015260640161044f565b60006112a5826109df565b6000546001600160a01b03163314611a5c5760405162461bcd60e51b81526020600482018190526024820152600080516020611e3f833981519152604482015260640161044f565b600655565b6000546001600160a01b03163314611aa95760405162461bcd60e51b81526020600482018190526024820152600080516020611e3f833981519152604482015260640161044f565b600555565b600080546001600160a01b038381167fffffffffffffffffffffffff0000000000000000000000000000000000000000831681178455604051919092169283917f8be0079c531659141344cd1fd0a4f28419497f9722a3daafe3b4186f6b6457e09190a35050565b6000611b228284611dce565b90505b92915050565b6000611b228284611ded565b6000611b228284611e27565b600060208284031215611b5557600080fd5b5035919050565b600060208284031215611b6e57600080fd5b813560028110610a9157600080fd5b80356001600160a01b0381168114611b9457600080fd5b919050565b801515811461068a57600080fd5b600080600080600080600080610100898b031215611bc457600080fd5b611bcd89611b7d565b97506020890135965060408901359550606089013594506080890135935060a0890135611bf981611b99565b979a969950949793969295929450505060c08201359160e0013590565b600060208284031215611c2857600080fd5b611b2282611b7d565b634e487b7160e01b600052602160045260246000fd5b6020810160028310611c6957634e487b7160e01b600052602160045260246000fd5b91905290565b600060208284031215611c8157600080fd5b8151610a9181611b99565b600060208284031215611c9e57600080fd5b5051919050565b600060208284031215611cb757600080fd5b815160ff81168114610a9157600080fd5b634e487b7160e01b600052601160045260246000fd5b600181815b80851115611d19578160001904821115611cff57611cff611cc8565b80851615611d0c57918102915b93841c9390800290611ce3565b509250929050565b600082611d3057506001611b25565b81611d3d57506000611b25565b8160018114611d535760028114611d5d57611d79565b6001915050611b25565b60ff841115611d6e57611d6e611cc8565b50506001821b611b25565b5060208310610133831016604e8410600b8410161715611d9c575081810a611b25565b611da68383611cde565b8060001904821115611dba57611dba611cc8565b029392505050565b6000611b228383611d21565b6000816000190483118215151615611de857611de8611cc8565b500290565b600082611e0a57634e487b7160e01b600052601260045260246000fd5b500490565b60008219821115611e2257611e22611cc8565b500190565b600082821015611e3957611e39611cc8565b50039056fe4f776e61626c653a2063616c6c6572206973206e6f7420746865206f776e6572a164736f6c6343000809000a60a06040523480156200001157600080fd5b5060405162001e4e38038062001e4e8339810160408190526200003491620000b9565b6200003f3362000069565b600180556001600160a01b0381166200005757600080fd5b6001600160a01b0316608052620000eb565b600080546001600160a01b038381166001600160a01b0319831681178455604051919092169283917f8be0079c531659141344cd1fd0a4f28419497f9722a3daafe3b4186f6b6457e09190a35050565b600060208284031215620000cc57600080fd5b81516001600160a01b0381168114620000e457600080fd5b9392505050565b608051611d326200011c6000396000818161018f01528181610afb01528181610dc40152610fbf0152611d326000f3fe6080604052600436106101335760003560e01c80638af104da116100b4578063ea1bb3d51161006e578063f51321d711610056578063f51321d7146103a9578063f7c469f0146103c9578063f9079b371461043e57005b8063ea1bb3d514610369578063f2fde38b1461038957005b806390be10cc1161009c57806390be10cc146103145780639ef346b414610329578063b75c7dc61461034957005b80638af104da146102945780638da5cb5b146102f657005b806348deb4711161010557806366afd8ef116100ed57806366afd8ef14610232578063715018a6146102525780637e913dc61461026757005b806348deb471146101e75780635a7bb69a146101fc57005b8063130836171461013c57806317e289e91461016057806321df0da7146101805780632e1a7d4d146101c757005b3661013a57005b005b34801561014857600080fd5b506002545b6040519081526020015b60405180910390f35b34801561016c57600080fd5b5061013a61017b366004611a62565b61045e565b34801561018c57600080fd5b507f00000000000000000000000000000000000000000000000000000000000000005b6040516001600160a01b039091168152602001610157565b3480156101d357600080fd5b5061013a6101e2366004611ac9565b610944565b3480156101f357600080fd5b5060045461014d565b34801561020857600080fd5b5061014d610217366004611ae2565b6001600160a01b031660009081526005602052604090205490565b34801561023e57600080fd5b5061013a61024d366004611afd565b610b29565b34801561025e57600080fd5b5061013a610df9565b34801561027357600080fd5b50610287610282366004611ae2565b610e5f565b6040516101579190611b1f565b3480156102a057600080fd5b5061014d6102af366004611baa565b6040516bffffffffffffffffffffffff19606084901b1660208201526034810182905260009060540160405160208183030381529060405280519060200120905092915050565b34801561030257600080fd5b506000546001600160a01b03166101af565b34801561032057600080fd5b5061014d610f94565b34801561033557600080fd5b50610287610344366004611ac9565b611044565b34801561035557600080fd5b5061013a610364366004611ac9565b611148565b34801561037557600080fd5b5061014d610384366004611ac9565b611358565b34801561039557600080fd5b5061013a6103a4366004611ae2565b611442565b3480156103b557600080fd5b506102876103c4366004611baa565b611524565b3480156103d557600080fd5b5061014d6103e4366004611ae2565b6001600160a01b0381166000908152600560209081526040808320548151606086901b6bffffffffffffffffffffffff19168185015260348082019290925282518082039092018252605401909152805191012092915050565b34801561044a57600080fd5b5061014d610459366004611ac9565b6115d9565b6000546001600160a01b031633146104bd5760405162461bcd60e51b815260206004820181905260248201527f4f776e61626c653a2063616c6c6572206973206e6f7420746865206f776e657260448201526064015b60405180910390fd5b80306001600160a01b03166390be10cc6040518163ffffffff1660e01b815260040160206040518083038186803b1580156104f757600080fd5b505afa15801561050b573d6000803e3d6000fd5b505050506040513d601f19601f8201168201806040525081019061052f9190611bd4565b10156105c95760405162461bcd60e51b815260206004820152604a60248201527f546f6b656e56657374696e673a2063616e6e6f7420637265617465207665737460448201527f696e67207363686564756c652062656361757365206e6f74207375666669636960648201527f656e7420746f6b656e7300000000000000000000000000000000000000000000608482015260a4016104b4565b600084116106245760405162461bcd60e51b815260206004820152602260248201527f546f6b656e56657374696e673a206475726174696f6e206d757374206265203e604482015261020360f41b60648201526084016104b4565b600081116106745760405162461bcd60e51b815260206004820181905260248201527f546f6b656e56657374696e673a20616d6f756e74206d757374206265203e203060448201526064016104b4565b60018310156106eb5760405162461bcd60e51b815260206004820152602d60248201527f546f6b656e56657374696e673a20736c696365506572696f645365636f6e647360448201527f206d757374206265203e3d20310000000000000000000000000000000000000060648201526084016104b4565b604051630f7c469f60e41b81526001600160a01b0388166004820152600090309063f7c469f09060240160206040518083038186803b15801561072d57600080fd5b505afa158015610741573d6000803e3d6000fd5b505050506040513d601f19601f820116820180604052508101906107659190611bd4565b905060006107738888611661565b90506040518061014001604052806001151581526020018a6001600160a01b03168152602001828152602001898152602001878152602001868152602001851515815260200184815260200160008152602001600015158152506003600084815260200190815260200160002060008201518160000160006101000a81548160ff02191690831515021790555060208201518160000160016101000a8154816001600160a01b0302191690836001600160a01b0316021790555060408201518160010155606082015181600201556080820151816003015560a0820151816004015560c08201518160050160006101000a81548160ff02191690831515021790555060e0820151816006015561010082015181600701556101208201518160080160006101000a81548160ff0219169083151502179055509050506108c38360045461166190919063ffffffff16565b6004556002805460018181019092557f405787fa12a823e0f2b7631cc41b3ba8828b3321ca811111fa75cd3aa3bb5ace018390556001600160a01b038a166000908152600560205260409020549061091c908290611661565b6001600160a01b03909a16600090815260056020526040902099909955505050505050505050565b600260015414156109975760405162461bcd60e51b815260206004820152601f60248201527f5265656e7472616e637947756172643a207265656e7472616e742063616c6c0060448201526064016104b4565b60026001556000546001600160a01b031633146109f65760405162461bcd60e51b815260206004820181905260248201527f4f776e61626c653a2063616c6c6572206973206e6f7420746865206f776e657260448201526064016104b4565b80306001600160a01b03166390be10cc6040518163ffffffff1660e01b815260040160206040518083038186803b158015610a3057600080fd5b505afa158015610a44573d6000803e3d6000fd5b505050506040513d601f19601f82011682018060405250810190610a689190611bd4565b1015610adc5760405162461bcd60e51b815260206004820152602b60248201527f546f6b656e56657374696e673a206e6f7420656e6f756768207769746864726160448201527f7761626c652066756e647300000000000000000000000000000000000000000060648201526084016104b4565b610b22610af16000546001600160a01b031690565b6001600160a01b037f000000000000000000000000000000000000000000000000000000000000000016908361166d565b5060018055565b60026001541415610b7c5760405162461bcd60e51b815260206004820152601f60248201527f5265656e7472616e637947756172643a207265656e7472616e742063616c6c0060448201526064016104b4565b60026001908155600083815260036020526040902054839160ff909116151514610ba557600080fd5b60008181526003602052604090206008015460ff1615610bc457600080fd5b6000838152600360205260408120805491549091336001600160a01b03610100909204821681149291909116148180610bfa5750805b610c775760405162461bcd60e51b815260206004820152604260248201527f546f6b656e56657374696e673a206f6e6c792062656e6566696369617279206160448201527f6e64206f776e65722063616e2072656c656173652076657374656420746f6b656064820152616e7360f01b608482015260a4016104b4565b6040805161014081018252845460ff808216151583526001600160a01b03610100928390041660208401526001870154938301939093526002860154606083015260038601546080830152600486015460a083015260058601548316151560c0830152600686015460e083015260078601549082015260088501549091161515610120820152600090610d09906116d9565b905085811015610d815760405162461bcd60e51b815260206004820152603d60248201527f546f6b656e56657374696e673a2063616e6e6f742072656c6561736520746f6b60448201527f656e732c206e6f7420656e6f7567682076657374656420746f6b656e7300000060648201526084016104b4565b6007840154610d909087611661565b600785015583546004546101009091046001600160a01b031690610db490886117bc565b600455610deb6001600160a01b037f000000000000000000000000000000000000000000000000000000000000000016828961166d565b505060018055505050505050565b6000546001600160a01b03163314610e535760405162461bcd60e51b815260206004820181905260248201527f4f776e61626c653a2063616c6c6572206973206e6f7420746865206f776e657260448201526064016104b4565b610e5d60006117c8565b565b610ec460405180610140016040528060001515815260200160006001600160a01b031681526020016000815260200160008152602001600081526020016000815260200160001515815260200160008152602001600081526020016000151581525090565b6001600160a01b03821660009081526005602052604081205460039190610ef39085906102af90600190611c03565b81526020808201929092526040908101600020815161014081018352815460ff808216151583526001600160a01b036101009283900416958301959095526001830154938201939093526002820154606082015260038201546080820152600482015460a082015260058201548416151560c0820152600682015460e082015260078201549281019290925260080154909116151561012082015292915050565b600480546040516370a0823160e01b8152309281019290925260009161103f91906001600160a01b037f000000000000000000000000000000000000000000000000000000000000000016906370a082319060240160206040518083038186803b15801561100157600080fd5b505afa158015611015573d6000803e3d6000fd5b505050506040513d601f19601f820116820180604052508101906110399190611bd4565b906117bc565b905090565b6110a960405180610140016040528060001515815260200160006001600160a01b031681526020016000815260200160008152602001600081526020016000815260200160001515815260200160008152602001600081526020016000151581525090565b50600090815260036020818152604092839020835161014081018552815460ff808216151583526001600160a01b0361010092839004169483019490945260018301549582019590955260028201546060820152928101546080840152600481015460a084015260058101548216151560c0840152600681015460e0840152600781015493830193909352600890920154909116151561012082015290565b6000546001600160a01b031633146111a25760405162461bcd60e51b815260206004820181905260248201527f4f776e61626c653a2063616c6c6572206973206e6f7420746865206f776e657260448201526064016104b4565b600081815260036020526040902054819060ff1615156001146111c457600080fd5b60008181526003602052604090206008015460ff16156111e357600080fd5b6000828152600360205260409020600581015460ff1615156001146112705760405162461bcd60e51b815260206004820152602660248201527f546f6b656e56657374696e673a2076657374696e67206973206e6f742072657660448201527f6f6361626c65000000000000000000000000000000000000000000000000000060648201526084016104b4565b6040805161014081018252825460ff808216151583526001600160a01b03610100928390041660208401526001850154938301939093526002840154606083015260038401546080830152600484015460a083015260058401548316151560c0830152600684015460e083015260078401549082015260088301549091161515610120820152600090611302906116d9565b90508015611314576113148482610b29565b6000611331836007015484600601546117bc90919063ffffffff16565b60045490915061134190826117bc565b6004555050600801805460ff191660011790555050565b600081815260036020526040812054829060ff16151560011461137a57600080fd5b60008181526003602052604090206008015460ff161561139957600080fd5b600083815260036020818152604092839020835161014081018552815460ff808216151583526001600160a01b0361010092839004169483019490945260018301549582019590955260028201546060820152928101546080840152600481015460a084015260058101548216151560c0840152600681015460e0840152600781015493830193909352600883015416151561012082015261143a906116d9565b949350505050565b6000546001600160a01b0316331461149c5760405162461bcd60e51b815260206004820181905260248201527f4f776e61626c653a2063616c6c6572206973206e6f7420746865206f776e657260448201526064016104b4565b6001600160a01b0381166115185760405162461bcd60e51b815260206004820152602660248201527f4f776e61626c653a206e6577206f776e657220697320746865207a65726f206160448201527f646472657373000000000000000000000000000000000000000000000000000060648201526084016104b4565b611521816117c8565b50565b61158960405180610140016040528060001515815260200160006001600160a01b031681526020016000815260200160008152602001600081526020016000815260200160001515815260200160008152602001600081526020016000151581525090565b60408051606085901b6bffffffffffffffffffffffff1916602080830191909152603480830186905283518084039091018152605490920190925280519101206115d290611044565b9392505050565b60006115e460025490565b821061163c5760405162461bcd60e51b815260206004820152602160248201527f546f6b656e56657374696e673a20696e646578206f7574206f6620626f756e646044820152607360f81b60648201526084016104b4565b6002828154811061164f5761164f611c1a565b90600052602060002001549050919050565b60006115d28284611c30565b604080516001600160a01b038416602482015260448082018490528251808303909101815260649091019091526020810180517bffffffffffffffffffffffffffffffffffffffffffffffffffffffff1663a9059cbb60e01b1790526116d4908490611830565b505050565b604081015160009042908110806116f7575061012083015115156001145b156117055750600092915050565b6080830151606084015161171891611661565b81106117325761010083015160e08401516115d2916117bc565b600061174b8460600151836117bc90919063ffffffff16565b60a0850151909150600061175f8383611915565b9050600061176d8284611921565b905060006117968860800151611790848b60e0015161192190919063ffffffff16565b90611915565b90506117b0886101000151826117bc90919063ffffffff16565b98975050505050505050565b60006115d28284611c03565b600080546001600160a01b038381167fffffffffffffffffffffffff0000000000000000000000000000000000000000831681178455604051919092169283917f8be0079c531659141344cd1fd0a4f28419497f9722a3daafe3b4186f6b6457e09190a35050565b6000611885826040518060400160405280602081526020017f5361666545524332303a206c6f772d6c6576656c2063616c6c206661696c6564815250856001600160a01b031661192d9092919063ffffffff16565b8051909150156116d457808060200190518101906118a39190611c48565b6116d45760405162461bcd60e51b815260206004820152602a60248201527f5361666545524332303a204552433230206f7065726174696f6e20646964206e60448201527f6f7420737563636565640000000000000000000000000000000000000000000060648201526084016104b4565b60006115d28284611c65565b60006115d28284611c87565b606061143a848460008585843b6119865760405162461bcd60e51b815260206004820152601d60248201527f416464726573733a2063616c6c20746f206e6f6e2d636f6e747261637400000060448201526064016104b4565b600080866001600160a01b031685876040516119a29190611cd6565b60006040518083038185875af1925050503d80600081146119df576040519150601f19603f3d011682016040523d82523d6000602084013e6119e4565b606091505b50915091506119f48282866119ff565b979650505050505050565b60608315611a0e5750816115d2565b825115611a1e5782518084602001fd5b8160405162461bcd60e51b81526004016104b49190611cf2565b80356001600160a01b0381168114611a4f57600080fd5b919050565b801515811461152157600080fd5b600080600080600080600060e0888a031215611a7d57600080fd5b611a8688611a38565b96506020880135955060408801359450606088013593506080880135925060a0880135611ab281611a54565b8092505060c0880135905092959891949750929550565b600060208284031215611adb57600080fd5b5035919050565b600060208284031215611af457600080fd5b6115d282611a38565b60008060408385031215611b1057600080fd5b50508035926020909101359150565b81511515815261014081016020830151611b4460208401826001600160a01b03169052565b5060408301516040830152606083015160608301526080830151608083015260a083015160a083015260c0830151611b8060c084018215159052565b5060e083810151908301526101008084015190830152610120928301511515929091019190915290565b60008060408385031215611bbd57600080fd5b611bc683611a38565b946020939093013593505050565b600060208284031215611be657600080fd5b5051919050565b634e487b7160e01b600052601160045260246000fd5b600082821015611c1557611c15611bed565b500390565b634e487b7160e01b600052603260045260246000fd5b60008219821115611c4357611c43611bed565b500190565b600060208284031215611c5a57600080fd5b81516115d281611a54565b600082611c8257634e487b7160e01b600052601260045260246000fd5b500490565b6000816000190483118215151615611ca157611ca1611bed565b500290565b60005b83811015611cc1578181015183820152602001611ca9565b83811115611cd0576000848401525b50505050565b60008251611ce8818460208701611ca6565b9190910192915050565b6020815260008251806020840152611d11816040850160208701611ca6565b601f01601f1916919091016040019291505056fea164736f6c6343000809000a",
  "devdoc": {
    "kind": "dev",
    "methods": {
      "owner()": {
        "details": "Returns the address of the current owner."
      },
      "renounceOwnership()": {
        "details": "Leaves the contract without owner. It will not be possible to call `onlyOwner` functions anymore. Can only be called by the current owner. NOTE: Renouncing ownership will leave the contract without an owner, thereby removing any functionality that is only available to the owner."
      },
      "transferOwnership(address)": {
        "details": "Transfers ownership of the contract to a new account (`newOwner`). Can only be called by the current owner."
      }
    },
    "title": "TokenSale Contract",
    "version": 1
  },
  "userdoc": {
    "kind": "user",
    "methods": {},
    "version": 1
  },
  "storageLayout": {
    "storage": [
      {
        "astId": 7,
        "contract": "contracts/TokenSale.sol:TokenSale",
        "label": "_owner",
        "offset": 0,
        "slot": "0",
        "type": "t_address"
      },
      {
        "astId": 1738,
        "contract": "contracts/TokenSale.sol:TokenSale",
        "label": "token",
        "offset": 0,
        "slot": "1",
        "type": "t_contract(IERC20)768"
      },
      {
        "astId": 1740,
        "contract": "contracts/TokenSale.sol:TokenSale",
        "label": "coinsSold",
        "offset": 0,
        "slot": "2",
        "type": "t_uint256"
      },
      {
        "astId": 1753,
        "contract": "contracts/TokenSale.sol:TokenSale",
        "label": "exchangePriceUSDT",
        "offset": 0,
        "slot": "3",
        "type": "t_uint256"
      },
      {
        "astId": 1756,
        "contract": "contracts/TokenSale.sol:TokenSale",
        "label": "exchangePriceBUSD",
        "offset": 0,
        "slot": "4",
        "type": "t_uint256"
      },
      {
        "astId": 1761,
        "contract": "contracts/TokenSale.sol:TokenSale",
        "label": "cliff",
        "offset": 0,
        "slot": "5",
        "type": "t_uint256"
      },
      {
        "astId": 1766,
        "contract": "contracts/TokenSale.sol:TokenSale",
        "label": "duration",
        "offset": 0,
        "slot": "6",
        "type": "t_uint256"
      },
      {
        "astId": 1769,
        "contract": "contracts/TokenSale.sol:TokenSale",
        "label": "vesting",
        "offset": 0,
        "slot": "7",
        "type": "t_contract(TokenVesting)3234"
      },
      {
        "astId": 1772,
        "contract": "contracts/TokenSale.sol:TokenSale",
        "label": "availableAtTGE",
        "offset": 0,
        "slot": "8",
        "type": "t_uint256"
      },
      {
        "astId": 1778,
        "contract": "contracts/TokenSale.sol:TokenSale",
        "label": "saleStatus",
        "offset": 0,
        "slot": "9",
        "type": "t_enum(SaleStatus)1775"
      }
    ],
    "types": {
      "t_address": {
        "encoding": "inplace",
        "label": "address",
        "numberOfBytes": "20"
      },
      "t_contract(IERC20)768": {
        "encoding": "inplace",
        "label": "contract IERC20",
        "numberOfBytes": "20"
      },
      "t_contract(TokenVesting)3234": {
        "encoding": "inplace",
        "label": "contract TokenVesting",
        "numberOfBytes": "20"
      },
      "t_enum(SaleStatus)1775": {
        "encoding": "inplace",
        "label": "enum TokenSale.SaleStatus",
        "numberOfBytes": "1"
      },
      "t_uint256": {
        "encoding": "inplace",
        "label": "uint256",
        "numberOfBytes": "32"
      }
    }
  }
}