{
  "address": "0x1880e96bb10BFe5f2bF8c282928ea73C7b13fD9F",
  "abi": [
    {
      "inputs": [
        {
          "internalType": "contract IERC20",
          "name": "_token",
          "type": "address"
        },
        {
          "internalType": "address",
          "name": "_usdt",
          "type": "address"
        },
        {
          "internalType": "address",
          "name": "_busd",
          "type": "address"
        }
      ],
      "stateMutability": "nonpayable",
      "type": "constructor"
    },
    {
      "anonymous": false,
      "inputs": [
        {
          "indexed": true,
          "internalType": "address",
          "name": "previousOwner",
          "type": "address"
        },
        {
          "indexed": true,
          "internalType": "address",
          "name": "newOwner",
          "type": "address"
        }
      ],
      "name": "OwnershipTransferred",
      "type": "event"
    },
    {
      "anonymous": false,
      "inputs": [
        {
          "indexed": false,
          "internalType": "address",
          "name": "buyer",
          "type": "address"
        },
        {
          "indexed": false,
          "internalType": "uint256",
          "name": "amount",
          "type": "uint256"
        }
      ],
      "name": "Sold",
      "type": "event"
    },
    {
      "inputs": [],
      "name": "BUSD",
      "outputs": [
        {
          "internalType": "address",
          "name": "",
          "type": "address"
        }
      ],
      "stateMutability": "view",
      "type": "function"
    },
    {
      "inputs": [],
      "name": "USDT",
      "outputs": [
        {
          "internalType": "address",
          "name": "",
          "type": "address"
        }
      ],
      "stateMutability": "view",
      "type": "function"
    },
    {
      "inputs": [],
      "name": "availableAtTGE",
      "outputs": [
        {
          "internalType": "uint256",
          "name": "",
          "type": "uint256"
        }
      ],
      "stateMutability": "view",
      "type": "function"
    },
    {
      "inputs": [
        {
          "internalType": "uint256",
          "name": "_busdAmount",
          "type": "uint256"
        }
      ],
      "name": "buyTokensUsingBUSD",
      "outputs": [],
      "stateMutability": "nonpayable",
      "type": "function"
    },
    {
      "inputs": [
        {
          "internalType": "uint256",
          "name": "_usdtAmount",
          "type": "uint256"
        }
      ],
      "name": "buyTokensUsingUSDT",
      "outputs": [],
      "stateMutability": "nonpayable",
      "type": "function"
    },
    {
      "inputs": [],
      "name": "cliff",
      "outputs": [
        {
          "internalType": "uint256",
          "name": "",
          "type": "uint256"
        }
      ],
      "stateMutability": "view",
      "type": "function"
    },
    {
      "inputs": [],
      "name": "coinsSold",
      "outputs": [
        {
          "internalType": "uint256",
          "name": "",
          "type": "uint256"
        }
      ],
      "stateMutability": "view",
      "type": "function"
    },
    {
      "inputs": [
        {
          "internalType": "uint256",
          "name": "_busdAmount",
          "type": "uint256"
        }
      ],
      "name": "computeTokensForBUSD",
      "outputs": [
        {
          "internalType": "uint256",
          "name": "",
          "type": "uint256"
        }
      ],
      "stateMutability": "view",
      "type": "function"
    },
    {
      "inputs": [
        {
          "internalType": "uint256",
          "name": "_usdtAmount",
          "type": "uint256"
        }
      ],
      "name": "computeTokensForUSDT",
      "outputs": [
        {
          "internalType": "uint256",
          "name": "",
          "type": "uint256"
        }
      ],
      "stateMutability": "view",
      "type": "function"
    },
    {
      "inputs": [],
      "name": "duration",
      "outputs": [
        {
          "internalType": "uint256",
          "name": "",
          "type": "uint256"
        }
      ],
      "stateMutability": "view",
      "type": "function"
    },
    {
      "inputs": [],
      "name": "endSale",
      "outputs": [],
      "stateMutability": "nonpayable",
      "type": "function"
    },
    {
      "inputs": [],
      "name": "exchangePriceBUSD",
      "outputs": [
        {
          "internalType": "uint256",
          "name": "",
          "type": "uint256"
        }
      ],
      "stateMutability": "view",
      "type": "function"
    },
    {
      "inputs": [],
      "name": "exchangePriceUSDT",
      "outputs": [
        {
          "internalType": "uint256",
          "name": "",
          "type": "uint256"
        }
      ],
      "stateMutability": "view",
      "type": "function"
    },
    {
      "inputs": [],
      "name": "maxBuyAmountBUSD",
      "outputs": [
        {
          "internalType": "uint256",
          "name": "",
          "type": "uint256"
        }
      ],
      "stateMutability": "view",
      "type": "function"
    },
    {
      "inputs": [],
      "name": "maxBuyAmountUSDT",
      "outputs": [
        {
          "internalType": "uint256",
          "name": "",
          "type": "uint256"
        }
      ],
      "stateMutability": "view",
      "type": "function"
    },
    {
      "inputs": [],
      "name": "minBuyAmountBUSD",
      "outputs": [
        {
          "internalType": "uint256",
          "name": "",
          "type": "uint256"
        }
      ],
      "stateMutability": "view",
      "type": "function"
    },
    {
      "inputs": [],
      "name": "minBuyAmountUSDT",
      "outputs": [
        {
          "internalType": "uint256",
          "name": "",
          "type": "uint256"
        }
      ],
      "stateMutability": "view",
      "type": "function"
    },
    {
      "inputs": [],
      "name": "owner",
      "outputs": [
        {
          "internalType": "address",
          "name": "",
          "type": "address"
        }
      ],
      "stateMutability": "view",
      "type": "function"
    },
    {
      "inputs": [],
      "name": "renounceOwnership",
      "outputs": [],
      "stateMutability": "nonpayable",
      "type": "function"
    },
    {
      "inputs": [
        {
          "internalType": "bytes32",
          "name": "vestingScheduleId",
          "type": "bytes32"
        }
      ],
      "name": "revoke",
      "outputs": [],
      "stateMutability": "nonpayable",
      "type": "function"
    },
    {
      "inputs": [],
      "name": "saleStatus",
      "outputs": [
        {
          "internalType": "enum TokenPreSale.SaleStatus",
          "name": "",
          "type": "uint8"
        }
      ],
      "stateMutability": "view",
      "type": "function"
    },
    {
      "inputs": [
        {
          "internalType": "uint256",
          "name": "_availableAtTGE",
          "type": "uint256"
        }
      ],
      "name": "setAvailableAtTGE",
      "outputs": [],
      "stateMutability": "nonpayable",
      "type": "function"
    },
    {
      "inputs": [
        {
          "internalType": "uint256",
          "name": "_min",
          "type": "uint256"
        },
        {
          "internalType": "uint256",
          "name": "_max",
          "type": "uint256"
        }
      ],
      "name": "setBuyAmountRangeBUSD",
      "outputs": [],
      "stateMutability": "nonpayable",
      "type": "function"
    },
    {
      "inputs": [
        {
          "internalType": "uint256",
          "name": "_min",
          "type": "uint256"
        },
        {
          "internalType": "uint256",
          "name": "_max",
          "type": "uint256"
        }
      ],
      "name": "setBuyAmountRangeUSDT",
      "outputs": [],
      "stateMutability": "nonpayable",
      "type": "function"
    },
    {
      "inputs": [
        {
          "internalType": "uint256",
          "name": "_cliff",
          "type": "uint256"
        }
      ],
      "name": "setCliff",
      "outputs": [],
      "stateMutability": "nonpayable",
      "type": "function"
    },
    {
      "inputs": [
        {
          "internalType": "uint256",
          "name": "_duration",
          "type": "uint256"
        }
      ],
      "name": "setDuration",
      "outputs": [],
      "stateMutability": "nonpayable",
      "type": "function"
    },
    {
      "inputs": [
        {
          "internalType": "uint256",
          "name": "_busdPrice",
          "type": "uint256"
        }
      ],
      "name": "setExchangePriceBUSD",
      "outputs": [],
      "stateMutability": "nonpayable",
      "type": "function"
    },
    {
      "inputs": [
        {
          "internalType": "uint256",
          "name": "_usdtPrice",
          "type": "uint256"
        }
      ],
      "name": "setExchangePriceUSDT",
      "outputs": [],
      "stateMutability": "nonpayable",
      "type": "function"
    },
    {
      "inputs": [
        {
          "internalType": "enum TokenPreSale.SaleStatus",
          "name": "_saleStatus",
          "type": "uint8"
        }
      ],
      "name": "setSaleStatus",
      "outputs": [],
      "stateMutability": "nonpayable",
      "type": "function"
    },
    {
      "inputs": [
        {
          "internalType": "uint256",
          "name": "_timePeriodInSeconds",
          "type": "uint256"
        }
      ],
      "name": "setTimeStamp",
      "outputs": [],
      "stateMutability": "nonpayable",
      "type": "function"
    },
    {
      "inputs": [],
      "name": "timelock",
      "outputs": [
        {
          "internalType": "contract TokenPreTimelock",
          "name": "",
          "type": "address"
        }
      ],
      "stateMutability": "view",
      "type": "function"
    },
    {
      "inputs": [],
      "name": "token",
      "outputs": [
        {
          "internalType": "contract IERC20",
          "name": "",
          "type": "address"
        }
      ],
      "stateMutability": "view",
      "type": "function"
    },
    {
      "inputs": [
        {
          "internalType": "contract IERC20",
          "name": "_token",
          "type": "address"
        },
        {
          "internalType": "uint256",
          "name": "amount",
          "type": "uint256"
        }
      ],
      "name": "transferAccidentallyLockedTokensFromTimelock",
      "outputs": [],
      "stateMutability": "nonpayable",
      "type": "function"
    },
    {
      "inputs": [
        {
          "internalType": "contract IERC20",
          "name": "_token",
          "type": "address"
        },
        {
          "internalType": "uint256",
          "name": "_amount",
          "type": "uint256"
        }
      ],
      "name": "transferAccidentallyLockedTokensInTimeLock",
      "outputs": [],
      "stateMutability": "nonpayable",
      "type": "function"
    },
    {
      "inputs": [
        {
          "internalType": "address",
          "name": "newOwner",
          "type": "address"
        }
      ],
      "name": "transferOwnership",
      "outputs": [],
      "stateMutability": "nonpayable",
      "type": "function"
    },
    {
      "inputs": [],
      "name": "vesting",
      "outputs": [
        {
          "internalType": "contract TokenPreVesting",
          "name": "",
          "type": "address"
        }
      ],
      "stateMutability": "view",
      "type": "function"
    },
    {
      "inputs": [],
      "name": "withdrawBUSD",
      "outputs": [],
      "stateMutability": "nonpayable",
      "type": "function"
    },
    {
      "inputs": [
        {
          "internalType": "uint256",
          "name": "_amount",
          "type": "uint256"
        }
      ],
      "name": "withdrawFromVesting",
      "outputs": [],
      "stateMutability": "nonpayable",
      "type": "function"
    },
    {
      "inputs": [],
      "name": "withdrawUSDT",
      "outputs": [],
      "stateMutability": "nonpayable",
      "type": "function"
    }
  ],
  "transactionHash": "0x3ed39b5950695c93a4c0a86aacec21f00a883835f0309448d6302f25ff1a517a",
  "args": [
    "0xa0F5deBF1FbE0a5d5861dD8D97C7326Ba7F57b4E",
    "0xfd55D5eB19731e79FB600579756dF7f454b2aA08",
    "0xa0D61133044ACB8Fb72Bc5a0378Fe13786538Dd0"
  ],
  "numDeployments": 1,
  "bytecode": "0x60c06040526701aa535d3d0c00006003556701aa535d3d0c00006004556302c7ea006005556276a700600655670de0b6b3a764000060075569021e19e0c9bab2400000600855670de0b6b3a764000060095569021e19e0c9bab2400000600a5560c8600d553480156200007157600080fd5b506040516200657a3803806200657a833981016040819052620000949162000213565b6200009f336200018e565b600180546001600160a01b0319166001600160a01b0385811691821790925583821660805290821660a052604051620000d890620001de565b6001600160a01b039091168152602001604051809103906000f08015801562000105573d6000803e3d6000fd5b50600b80546001600160a01b0319166001600160a01b039283161790556001546040519116906200013690620001ec565b6001600160a01b039091168152602001604051809103906000f08015801562000163573d6000803e3d6000fd5b50600c80546001600160a01b0319166001600160a01b03929092169190911790555062000267915050565b600080546001600160a01b038381166001600160a01b0319831681178455604051919092169283917f8be0079c531659141344cd1fd0a4f28419497f9722a3daafe3b4186f6b6457e09190a35050565b6127a1806200252083390190565b6118b98062004cc183390190565b6001600160a01b03811681146200021057600080fd5b50565b6000806000606084860312156200022957600080fd5b83516200023681620001fa565b60208501519093506200024981620001fa565b60408501519092506200025c81620001fa565b809150509250925092565b60805160a05161224d620002d36000396000818161035b01528181610c6e01528181610cfa01528181611b9901528181611c400152611d28015260008181610472015281816108eb0152818161097701528181611242015281816112e901526113d1015261224d6000f3fe608060405234801561001057600080fd5b50600436106102ad5760003560e01c80638ddeaf391161017b578063da499ad0116100d8578063f6be71d11161008c578063fc0c546a11610071578063fc0c546a14610532578063fcdaa6b114610545578063ff4d1f251461054e57600080fd5b8063f6be71d114610505578063f9020e331461051857600080fd5b8063efd4bde5116100bd578063efd4bde5146104d6578063f2fde38b146104df578063f3fe4809146104f257600080fd5b8063da499ad0146104b0578063ec41f7dd146104c357600080fd5b8063b937f1e01161012f578063c54e44eb11610114578063c54e44eb1461046d578063d00eea8414610494578063d33219b41461049d57600080fd5b8063b937f1e014610451578063ba7d837b1461046457600080fd5b80639a99e3c5116101605780639a99e3c514610418578063a5dee4eb1461042b578063b75c7dc61461043e57600080fd5b80638ddeaf39146103fc57806396ce35321461040f57600080fd5b8063484f4ea9116102295780637540cd63116101dd5780637a81450c116101c25780637a81450c146103cf578063879b60ee146103d85780638da5cb5b146103eb57600080fd5b80637540cd63146103a957806377cdf957146103bc57600080fd5b80634a4a9b021161020e5780634a4a9b02146103905780635b0b859614610399578063715018a6146103a157600080fd5b8063484f4ea9146103565780634891ad881461037d57600080fd5b806313e43bc611610280578063362e496b11610265578063362e496b1461031b578063380d831b1461032357806344c63eec1461032b57600080fd5b806313e43bc6146102ff57806325c57cc61461031257600080fd5b8063076910fd146102b25780630e6a2f0a146102c75780630fb5a6b4146102da57806313d033c0146102f6575b600080fd5b6102c56102c0366004611f69565b610561565b005b6102c56102d5366004611f95565b610730565b6102e360055481565b6040519081526020015b60405180910390f35b6102e360065481565b6102c561030d366004611fb7565b610783565b6102e3600d5481565b6102c561088b565b6102c5610a3b565b600b5461033e906001600160a01b031681565b6040516001600160a01b0390911681526020016102ed565b61033e7f000000000000000000000000000000000000000000000000000000000000000081565b6102c561038b366004611fd0565b610ba0565b6102e360035481565b6102c5610c0e565b6102c5610d39565b6102e36103b7366004611fb7565b610d8d565b6102e36103ca366004611fb7565b610e46565b6102e360025481565b6102c56103e6366004611f69565b610ee4565b6000546001600160a01b031661033e565b6102c561040a366004611fb7565b610fe6565b6102e360085481565b6102c5610426366004611fb7565b611033565b6102c5610439366004611fb7565b611080565b6102c561044c366004611fb7565b61114b565b6102c561045f366004611fb7565b6111c4565b6102e3600a5481565b61033e7f000000000000000000000000000000000000000000000000000000000000000081565b6102e360095481565b600c5461033e906001600160a01b031681565b6102c56104be366004611fb7565b6119ae565b6102c56104d1366004611f95565b6119fb565b6102e360045481565b6102c56104ed366004611ff1565b611a4e565b6102c5610500366004611fb7565b611b1b565b6102c5610513366004611fb7565b611e25565b600e546105259060ff1681565b6040516102ed9190612024565b60015461033e906001600160a01b031681565b6102e360075481565b6102c561055c366004611fb7565b611e72565b6000546001600160a01b031633146105ae5760405162461bcd60e51b8152602060048201819052602482015260008051602061222183398151915260448201526064015b60405180910390fd5b600c54604051631f4ca4a160e11b81526001600160a01b0384811660048301526024820184905290911690633e99494290604401600060405180830381600087803b1580156105fc57600080fd5b505af1158015610610573d6000803e3d6000fd5b50505050816001600160a01b031663a9059cbb6106356000546001600160a01b031690565b6040516370a0823160e01b81523060048201526001600160a01b038616906370a082319060240160206040518083038186803b15801561067457600080fd5b505afa158015610688573d6000803e3d6000fd5b505050506040513d601f19601f820116820180604052508101906106ac919061204c565b6040516001600160e01b031960e085901b1681526001600160a01b03909216600483015260248201526044015b602060405180830381600087803b1580156106f357600080fd5b505af1158015610707573d6000803e3d6000fd5b505050506040513d601f19601f8201168201806040525081019061072b9190612065565b505050565b6000546001600160a01b031633146107785760405162461bcd60e51b8152602060048201819052602482015260008051602061222183398151915260448201526064016105a5565b600991909155600a55565b6000546001600160a01b031633146107cb5760405162461bcd60e51b8152602060048201819052602482015260008051602061222183398151915260448201526064016105a5565b600b5460405163a0a2b57360e01b8152600481018390526001600160a01b039091169063a0a2b57390602401600060405180830381600087803b15801561081157600080fd5b505af1158015610825573d6000803e3d6000fd5b5050600c5460405163a0a2b57360e01b8152600481018590526001600160a01b03909116925063a0a2b57391506024015b600060405180830381600087803b15801561087057600080fd5b505af1158015610884573d6000803e3d6000fd5b5050505050565b6000546001600160a01b031633146108d35760405162461bcd60e51b8152602060048201819052602482015260008051602061222183398151915260448201526064016105a5565b6040516370a0823160e01b81523060048201526000907f00000000000000000000000000000000000000000000000000000000000000006001600160a01b0316906370a082319060240160206040518083038186803b15801561093557600080fd5b505afa158015610949573d6000803e3d6000fd5b505050506040513d601f19601f8201168201806040525081019061096d919061204c565b90508015610a38577f00000000000000000000000000000000000000000000000000000000000000006001600160a01b031663a9059cbb6109b66000546001600160a01b031690565b6040516001600160e01b031960e084901b1681526001600160a01b03909116600482015260248101849052604401602060405180830381600087803b1580156109fe57600080fd5b505af1158015610a12573d6000803e3d6000fd5b505050506040513d601f19601f82011682018060405250810190610a369190612065565b505b50565b6000546001600160a01b03163314610a835760405162461bcd60e51b8152602060048201819052602482015260008051602061222183398151915260448201526064016105a5565b600e805460ff19169055600b546040805163242f843360e21b815290516000926001600160a01b0316916390be10cc916004808301926020929190829003018186803b158015610ad257600080fd5b505afa158015610ae6573d6000803e3d6000fd5b505050506040513d601f19601f82011682018060405250810190610b0a919061204c565b90508015610b9057600b546040805163242f843360e21b81529051610b90926001600160a01b0316916390be10cc916004808301926020929190829003018186803b158015610b5857600080fd5b505afa158015610b6c573d6000803e3d6000fd5b505050506040513d601f19601f82011682018060405250810190610439919061204c565b610b98610c0e565b610a3861088b565b6000546001600160a01b03163314610be85760405162461bcd60e51b8152602060048201819052602482015260008051602061222183398151915260448201526064016105a5565b600e805482919060ff191660018381811115610c0657610c0661200e565b021790555050565b6000546001600160a01b03163314610c565760405162461bcd60e51b8152602060048201819052602482015260008051602061222183398151915260448201526064016105a5565b6040516370a0823160e01b81523060048201526000907f00000000000000000000000000000000000000000000000000000000000000006001600160a01b0316906370a082319060240160206040518083038186803b158015610cb857600080fd5b505afa158015610ccc573d6000803e3d6000fd5b505050506040513d601f19601f82011682018060405250810190610cf0919061204c565b90508015610a38577f00000000000000000000000000000000000000000000000000000000000000006001600160a01b031663a9059cbb6109b66000546001600160a01b031690565b6000546001600160a01b03163314610d815760405162461bcd60e51b8152602060048201819052602482015260008051602061222183398151915260448201526064016105a5565b610d8b6000611ebf565b565b600080600160009054906101000a90046001600160a01b03166001600160a01b031663313ce5676040518163ffffffff1660e01b815260040160206040518083038186803b158015610dde57600080fd5b505afa158015610df2573d6000803e3d6000fd5b505050506040513d601f19601f82011682018060405250810190610e169190612087565b60ff16905060045481600a610e2b91906121a4565b610e3590856121b0565b610e3f91906121cf565b9392505050565b600080600160009054906101000a90046001600160a01b03166001600160a01b031663313ce5676040518163ffffffff1660e01b815260040160206040518083038186803b158015610e9757600080fd5b505afa158015610eab573d6000803e3d6000fd5b505050506040513d601f19601f82011682018060405250810190610ecf9190612087565b60ff16905060035481600a610e2b91906121a4565b6000546001600160a01b03163314610f2c5760405162461bcd60e51b8152602060048201819052602482015260008051602061222183398151915260448201526064016105a5565b600c54604051631f4ca4a160e11b81526001600160a01b0384811660048301526024820184905290911690633e99494290604401600060405180830381600087803b158015610f7a57600080fd5b505af1158015610f8e573d6000803e3d6000fd5b50505050816001600160a01b031663a9059cbb610fb36000546001600160a01b031690565b6040516001600160e01b031960e084901b1681526001600160a01b039091166004820152602481018490526044016106d9565b6000546001600160a01b0316331461102e5760405162461bcd60e51b8152602060048201819052602482015260008051602061222183398151915260448201526064016105a5565b600355565b6000546001600160a01b0316331461107b5760405162461bcd60e51b8152602060048201819052602482015260008051602061222183398151915260448201526064016105a5565b600d55565b6000546001600160a01b031633146110c85760405162461bcd60e51b8152602060048201819052602482015260008051602061222183398151915260448201526064016105a5565b600b54604051632e1a7d4d60e01b8152600481018390526001600160a01b0390911690632e1a7d4d90602401600060405180830381600087803b15801561110e57600080fd5b505af1158015611122573d6000803e3d6000fd5b50506001546001600160a01b0316915063a9059cbb90506109b66000546001600160a01b031690565b6000546001600160a01b031633146111935760405162461bcd60e51b8152602060048201819052602482015260008051602061222183398151915260448201526064016105a5565b600b54604051635bae3ee360e11b8152600481018390526001600160a01b039091169063b75c7dc690602401610856565b6001600e5460ff1660018111156111dd576111dd61200e565b1461122a5760405162461bcd60e51b815260206004820152601e60248201527f546f6b656e50726553616c653a2053616c65206e6f742073746172746564000060448201526064016105a5565b6040516370a0823160e01b81523060048201526000907f00000000000000000000000000000000000000000000000000000000000000006001600160a01b0316906370a082319060240160206040518083038186803b15801561128c57600080fd5b505afa1580156112a0573d6000803e3d6000fd5b505050506040513d601f19601f820116820180604052508101906112c4919061204c565b6040516323b872dd60e01b8152336004820152306024820152604481018490529091507f00000000000000000000000000000000000000000000000000000000000000006001600160a01b0316906323b872dd90606401602060405180830381600087803b15801561133557600080fd5b505af1158015611349573d6000803e3d6000fd5b505050506040513d601f19601f8201168201806040525081019061136d9190612065565b6113b95760405162461bcd60e51b815260206004820152601a60248201527f546f6b656e50726553616c653a2055534454202d3e207468697300000000000060448201526064016105a5565b6040516370a0823160e01b81523060048201526000907f00000000000000000000000000000000000000000000000000000000000000006001600160a01b0316906370a082319060240160206040518083038186803b15801561141b57600080fd5b505afa15801561142f573d6000803e3d6000fd5b505050506040513d601f19601f82011682018060405250810190611453919061204c565b905060006114618284611f27565b9050600754811015801561147757506008548111155b6114c35760405162461bcd60e51b815260206004820152601f60248201527f546f6b656e50726553616c653a2055534454206f7574206f662072616e67650060448201526064016105a5565b60006114ce82610e46565b60015490915081906001600160a01b031663dd62ed3e6114f66000546001600160a01b031690565b6040516001600160e01b031960e084901b1681526001600160a01b03909116600482015230602482015260440160206040518083038186803b15801561153b57600080fd5b505afa15801561154f573d6000803e3d6000fd5b505050506040513d601f19601f82011682018060405250810190611573919061204c565b10156115e75760405162461bcd60e51b815260206004820152602960248201527f546f6b656e50726553616c653a20696e73756666696369656e7420746f6b656e60448201527f20617070726f76616c000000000000000000000000000000000000000000000060648201526084016105a5565b60408051338152602081018390527fae92ab4b6f8f401ead768d3273e6bb937a13e39827d19c6376e8fd4512a05d9a910160405180910390a1806002600082825461163291906121f1565b92505081905550600061165c612710611656600d5485611f3c90919063ffffffff16565b90611f48565b9050600061166a8383611f27565b905081156117f6576001546001600160a01b03166323b872dd6116956000546001600160a01b031690565b600c5460405160e084901b6001600160e01b03191681526001600160a01b0392831660048201529116602482015260448101859052606401602060405180830381600087803b1580156116e757600080fd5b505af11580156116fb573d6000803e3d6000fd5b505050506040513d601f19601f8201168201806040525081019061171f9190612065565b6117915760405162461bcd60e51b815260206004820152602760248201527f546f6b656e50726553616c653a20746f6b656e202d3e20746f6b656e7072657460448201527f696d656c6f636b0000000000000000000000000000000000000000000000000060648201526084016105a5565b600c546040516366168bd760e01b8152336004820152602481018490526001600160a01b03909116906366168bd790604401600060405180830381600087803b1580156117dd57600080fd5b505af11580156117f1573d6000803e3d6000fd5b505050505b6001546001600160a01b03166323b872dd6118196000546001600160a01b031690565b600b5460405160e084901b6001600160e01b03191681526001600160a01b0392831660048201529116602482015260448101849052606401602060405180830381600087803b15801561186b57600080fd5b505af115801561187f573d6000803e3d6000fd5b505050506040513d601f19601f820116820180604052508101906118a39190612065565b6119155760405162461bcd60e51b815260206004820152602660248201527f546f6b656e50726553616c653a20746f6b656e202d3e20746f6b656e7072657660448201527f657374696e67000000000000000000000000000000000000000000000000000060648201526084016105a5565b600b54600654600554600d5460405163530ff4e560e01b815233600482015260248101939093526044830191909152600160648301526000608483015260a4820184905260c48201526001600160a01b039091169063530ff4e59060e401600060405180830381600087803b15801561198d57600080fd5b505af11580156119a1573d6000803e3d6000fd5b5050505050505050505050565b6000546001600160a01b031633146119f65760405162461bcd60e51b8152602060048201819052602482015260008051602061222183398151915260448201526064016105a5565b600455565b6000546001600160a01b03163314611a435760405162461bcd60e51b8152602060048201819052602482015260008051602061222183398151915260448201526064016105a5565b600791909155600855565b6000546001600160a01b03163314611a965760405162461bcd60e51b8152602060048201819052602482015260008051602061222183398151915260448201526064016105a5565b6001600160a01b038116611b125760405162461bcd60e51b815260206004820152602660248201527f4f776e61626c653a206e6577206f776e657220697320746865207a65726f206160448201527f646472657373000000000000000000000000000000000000000000000000000060648201526084016105a5565b610a3881611ebf565b6001600e5460ff166001811115611b3457611b3461200e565b14611b815760405162461bcd60e51b815260206004820152601e60248201527f546f6b656e50726553616c653a2053616c65206e6f742073746172746564000060448201526064016105a5565b6040516370a0823160e01b81523060048201526000907f00000000000000000000000000000000000000000000000000000000000000006001600160a01b0316906370a082319060240160206040518083038186803b158015611be357600080fd5b505afa158015611bf7573d6000803e3d6000fd5b505050506040513d601f19601f82011682018060405250810190611c1b919061204c565b6040516323b872dd60e01b8152336004820152306024820152604481018490529091507f00000000000000000000000000000000000000000000000000000000000000006001600160a01b0316906323b872dd90606401602060405180830381600087803b158015611c8c57600080fd5b505af1158015611ca0573d6000803e3d6000fd5b505050506040513d601f19601f82011682018060405250810190611cc49190612065565b611d105760405162461bcd60e51b815260206004820152601a60248201527f546f6b656e50726553616c653a2042555344202d3e207468697300000000000060448201526064016105a5565b6040516370a0823160e01b81523060048201526000907f00000000000000000000000000000000000000000000000000000000000000006001600160a01b0316906370a082319060240160206040518083038186803b158015611d7257600080fd5b505afa158015611d86573d6000803e3d6000fd5b505050506040513d601f19601f82011682018060405250810190611daa919061204c565b90506000611db88284611f27565b90506009548110158015611dce5750600a548111155b611e1a5760405162461bcd60e51b815260206004820152601f60248201527f546f6b656e50726553616c653a2042555344206f7574206f662072616e67650060448201526064016105a5565b60006114ce82610d8d565b6000546001600160a01b03163314611e6d5760405162461bcd60e51b8152602060048201819052602482015260008051602061222183398151915260448201526064016105a5565b600555565b6000546001600160a01b03163314611eba5760405162461bcd60e51b8152602060048201819052602482015260008051602061222183398151915260448201526064016105a5565b600655565b600080546001600160a01b038381167fffffffffffffffffffffffff0000000000000000000000000000000000000000831681178455604051919092169283917f8be0079c531659141344cd1fd0a4f28419497f9722a3daafe3b4186f6b6457e09190a35050565b6000611f338284612209565b90505b92915050565b6000611f3382846121b0565b6000611f3382846121cf565b6001600160a01b0381168114610a3857600080fd5b60008060408385031215611f7c57600080fd5b8235611f8781611f54565b946020939093013593505050565b60008060408385031215611fa857600080fd5b50508035926020909101359150565b600060208284031215611fc957600080fd5b5035919050565b600060208284031215611fe257600080fd5b813560028110610e3f57600080fd5b60006020828403121561200357600080fd5b8135610e3f81611f54565b634e487b7160e01b600052602160045260246000fd5b602081016002831061204657634e487b7160e01b600052602160045260246000fd5b91905290565b60006020828403121561205e57600080fd5b5051919050565b60006020828403121561207757600080fd5b81518015158114610e3f57600080fd5b60006020828403121561209957600080fd5b815160ff81168114610e3f57600080fd5b634e487b7160e01b600052601160045260246000fd5b600181815b808511156120fb5781600019048211156120e1576120e16120aa565b808516156120ee57918102915b93841c93908002906120c5565b509250929050565b60008261211257506001611f36565b8161211f57506000611f36565b8160018114612135576002811461213f5761215b565b6001915050611f36565b60ff841115612150576121506120aa565b50506001821b611f36565b5060208310610133831016604e8410600b841016171561217e575081810a611f36565b61218883836120c0565b806000190482111561219c5761219c6120aa565b029392505050565b6000611f338383612103565b60008160001904831182151516156121ca576121ca6120aa565b500290565b6000826121ec57634e487b7160e01b600052601260045260246000fd5b500490565b60008219821115612204576122046120aa565b500190565b60008282101561221b5761221b6120aa565b50039056fe4f776e61626c653a2063616c6c6572206973206e6f7420746865206f776e6572a164736f6c6343000809000a60a06040523480156200001157600080fd5b50604051620027a1380380620027a1833981016040819052620000349162000113565b6200003f33620000c3565b600180556001600160a01b038116620000ad5760405162461bcd60e51b815260206004820152602660248201527f546f6b656e50726556657374696e673a20746f6b656e2061646472657373206960448201526573207a65726f60d01b606482015260840160405180910390fd5b426003556001600160a01b031660805262000145565b600080546001600160a01b038381166001600160a01b0319831681178455604051919092169283917f8be0079c531659141344cd1fd0a4f28419497f9722a3daafe3b4186f6b6457e09190a35050565b6000602082840312156200012657600080fd5b81516001600160a01b03811681146200013e57600080fd5b9392505050565b60805161262b62000176600039600081816101cc0152818161060901528181610f57015261114e015261262b6000f3fe608060405234801561001057600080fd5b50600436106101ae5760003560e01c806390be10cc116100ee578063d1f3c24d11610097578063f2fde38b11610071578063f2fde38b146103ac578063f51321d7146103bf578063f7c469f0146103d2578063f9079b371461043a57600080fd5b8063d1f3c24d1461037d578063d6d1417114610390578063ea1bb3d51461039957600080fd5b8063a0a2b573116100c8578063a0a2b5731461034e578063b75c7dc614610361578063be9a65551461037457600080fd5b806390be10cc146103215780639b69279a146103295780639ef346b41461033b57600080fd5b806355ce38661161015b578063715018a611610135578063715018a6146102935780637e913dc61461029b5780638af104da146102bb5780638da5cb5b1461031057600080fd5b806355ce38661461023a5780635a7bb69a1461025757806366afd8ef1461028057600080fd5b80632e1a7d4d1161018c5780632e1a7d4d1461020a57806348deb4711461021f578063530ff4e51461022757600080fd5b806313083617146101b357806321df0da7146101ca57806329cb924d14610204575b600080fd5b6005545b6040519081526020015b60405180910390f35b7f00000000000000000000000000000000000000000000000000000000000000005b6040516001600160a01b0390911681526020016101c1565b426101b7565b61021d61021836600461209a565b61044d565b005b6006546101b7565b61021d6102353660046120dd565b610637565b6002546102479060ff1681565b60405190151581526020016101c1565b6101b7610265366004612143565b6001600160a01b031660009081526008602052604090205490565b61021d61028e36600461215e565b610be3565b61021d610f8c565b6102ae6102a9366004612143565b610ff2565b6040516101c19190612180565b6101b76102c9366004612211565b6040516bffffffffffffffffffffffff19606084901b1660208201526034810182905260009060540160405160208183030381529060405280519060200120905092915050565b6000546001600160a01b03166101ec565b6101b7611127565b60025461024790610100900460ff1681565b6102ae61034936600461209a565b6111d3565b61021d61035c36600461209a565b6112d7565b61021d61036f36600461209a565b6113d4565b6101b760045481565b61021d61038b36600461232d565b61169d565b6101b760035481565b6101b76103a736600461209a565b6118e2565b61021d6103ba366004612143565b611a84565b6102ae6103cd366004612211565b611b66565b6101b76103e0366004612143565b6001600160a01b0381166000908152600860209081526040808320548151606086901b6bffffffffffffffffffffffff19168185015260348082019290925282518082039092018252605401909152805191012092915050565b6101b761044836600461209a565b611c1b565b600260015414156104a55760405162461bcd60e51b815260206004820152601f60248201527f5265656e7472616e637947756172643a207265656e7472616e742063616c6c0060448201526064015b60405180910390fd5b60026001556000546001600160a01b031633146105045760405162461bcd60e51b815260206004820181905260248201527f4f776e61626c653a2063616c6c6572206973206e6f7420746865206f776e6572604482015260640161049c565b80306001600160a01b03166390be10cc6040518163ffffffff1660e01b815260040160206040518083038186803b15801561053e57600080fd5b505afa158015610552573d6000803e3d6000fd5b505050506040513d601f19601f820116820180604052508101906105769190612495565b10156105ea5760405162461bcd60e51b815260206004820152602e60248201527f546f6b656e50726556657374696e673a206e6f7420656e6f756768207769746860448201527f6472617761626c652066756e6473000000000000000000000000000000000000606482015260840161049c565b6106306105ff6000546001600160a01b031690565b6001600160a01b037f0000000000000000000000000000000000000000000000000000000000000000169083611ca5565b5060018055565b60025460ff16156106b05760405162461bcd60e51b815260206004820152603760248201527f546f6b656e50726556657374696e673a20496e636f6d696e67206465706f736960448201527f74732068617665206265656e2066696e616c697365642e000000000000000000606482015260840161049c565b6000546001600160a01b0316331461070a5760405162461bcd60e51b815260206004820181905260248201527f4f776e61626c653a2063616c6c6572206973206e6f7420746865206f776e6572604482015260640161049c565b81306001600160a01b03166390be10cc6040518163ffffffff1660e01b815260040160206040518083038186803b15801561074457600080fd5b505afa158015610758573d6000803e3d6000fd5b505050506040513d601f19601f8201168201806040525081019061077c9190612495565b10156108165760405162461bcd60e51b815260206004820152604d60248201527f546f6b656e50726556657374696e673a2063616e6e6f7420637265617465207660448201527f657374696e67207363686564756c652062656361757365206e6f74207375666660648201527f696369656e7420746f6b656e7300000000000000000000000000000000000000608482015260a40161049c565b6000851161088c5760405162461bcd60e51b815260206004820152602560248201527f546f6b656e50726556657374696e673a206475726174696f6e206d757374206260448201527f65203e2030000000000000000000000000000000000000000000000000000000606482015260840161049c565b600082116108e85760405162461bcd60e51b815260206004820152602360248201527f546f6b656e50726556657374696e673a20616d6f756e74206d7573742062652060448201526203e20360ec1b606482015260840161049c565b600184101561095f5760405162461bcd60e51b815260206004820152603060248201527f546f6b656e50726556657374696e673a20736c696365506572696f645365636f60448201527f6e6473206d757374206265203e3d203100000000000000000000000000000000606482015260840161049c565b604051630f7c469f60e41b81526001600160a01b0388166004820152600090309063f7c469f09060240160206040518083038186803b1580156109a157600080fd5b505afa1580156109b5573d6000803e3d6000fd5b505050506040513d601f19601f820116820180604052508101906109d99190612495565b9050604051806101400160405280600115158152602001896001600160a01b03168152602001888152602001878152602001868152602001851515815260200184815260200160008152602001600015158152602001838152506007600083815260200190815260200160002060008201518160000160006101000a81548160ff02191690831515021790555060208201518160000160016101000a8154816001600160a01b0302191690836001600160a01b0316021790555060408201518160010155606082015181600201556080820151816003015560a08201518160040160006101000a81548160ff02191690831515021790555060c0820151816005015560e082015181600601556101008201518160070160006101000a81548160ff0219169083151502179055506101208201518160080155905050610b2983600654611d1190919063ffffffff16565b6006556005805460018181019092557f036b6384b5eca791c62761152d0c79bb0604c104a5fb6f4eb0703f3154bb3db0018290556001600160a01b03891660009081526008602052604090205490610b82908290611d11565b6001600160a01b038a166000818152600860209081526040918290209390935580519182529181018490527f054b7a1afdd1e502e9103592f08509d192ea86fccca863e13933ee2e0bcaed2e910160405180910390a1505050505050505050565b60026001541415610c365760405162461bcd60e51b815260206004820152601f60248201527f5265656e7472616e637947756172643a207265656e7472616e742063616c6c00604482015260640161049c565b60026001908155600083815260076020526040902054839160ff909116151514610cbc5760405162461bcd60e51b815260206004820152603160248201527f546f6b656e50726556657374696e673a2056657374696e67207363686564756c6044820152706520646f6573206e6f742065786973747360781b606482015260840161049c565b6000818152600760208190526040909120015460ff1615610d345760405162461bcd60e51b815260206004820152602c60248201527f546f6b656e50726556657374696e673a2056657374696e67207363686564756c60448201526b19481a5cc81c995d9bdad95960a21b606482015260840161049c565b6000838152600760205260408120805491549091336001600160a01b03610100909204821681149291909116148180610d6a5750805b610e025760405162461bcd60e51b815260206004820152604560248201527f546f6b656e50726556657374696e673a206f6e6c792062656e6566696369617260448201527f7920616e64206f776e65722063616e2072656c6561736520766573746564207460648201527f6f6b656e73000000000000000000000000000000000000000000000000000000608482015260a40161049c565b6040805161014081018252845460ff808216151583526001600160a01b0361010092839004166020840152600187015493830193909352600286015460608301526003860154608083015260048601548316151560a0830152600586015460c0830152600686015460e083015260078601549092161515918101919091526008840154610120820152600090610e9790611d1d565b905085811015610f11576040805162461bcd60e51b81526020600482015260248101919091527f546f6b656e50726556657374696e673a2063616e6e6f742072656c656173652060448201527f746f6b656e732c206e6f7420656e6f7567682076657374656420746f6b656e73606482015260840161049c565b6006840154610f209087611d11565b600685810191909155845490546101009091046001600160a01b031690610f479088611e1e565b600655610f7e6001600160a01b037f0000000000000000000000000000000000000000000000000000000000000000168289611ca5565b505060018055505050505050565b6000546001600160a01b03163314610fe65760405162461bcd60e51b815260206004820181905260248201527f4f776e61626c653a2063616c6c6572206973206e6f7420746865206f776e6572604482015260640161049c565b610ff06000611e2a565b565b61105760405180610140016040528060001515815260200160006001600160a01b031681526020016000815260200160008152602001600081526020016000151581526020016000815260200160008152602001600015158152602001600081525090565b6001600160a01b038216600090815260086020526040812054600791906110869085906102c9906001906124c4565b81526020808201929092526040908101600020815161014081018352815460ff808216151583526001600160a01b03610100928390041695830195909552600183015493820193909352600282015460608201526003820154608082015260048201548416151560a0820152600582015460c0820152600682015460e082015260078201549093161515918301919091526008015461012082015292915050565b6006546040516370a0823160e01b81523060048201526000916111ce916001600160a01b037f000000000000000000000000000000000000000000000000000000000000000016906370a082319060240160206040518083038186803b15801561119057600080fd5b505afa1580156111a4573d6000803e3d6000fd5b505050506040513d601f19601f820116820180604052508101906111c89190612495565b90611e1e565b905090565b61123860405180610140016040528060001515815260200160006001600160a01b031681526020016000815260200160008152602001600081526020016000151581526020016000815260200160008152602001600015158152602001600081525090565b50600090815260076020818152604092839020835161014081018552815460ff808216151583526001600160a01b03610100928390041694830194909452600183015495820195909552600282015460608201526003820154608082015260048201548316151560a0820152600582015460c0820152600682015460e08201529281015490911615159282019290925260089091015461012082015290565b6000546001600160a01b031633146113315760405162461bcd60e51b815260206004820181905260248201527f4f776e61626c653a2063616c6c6572206973206e6f7420746865206f776e6572604482015260640161049c565b600254610100900460ff16156113af5760405162461bcd60e51b815260206004820152602860248201527f546f6b656e50726556657374696e673a206c61756e63682074696d657374616d60448201527f7020697320736574000000000000000000000000000000000000000000000000606482015260840161049c565b6002805461ffff19166101011790554260038190556113ce9082611d11565b60045550565b6000546001600160a01b0316331461142e5760405162461bcd60e51b815260206004820181905260248201527f4f776e61626c653a2063616c6c6572206973206e6f7420746865206f776e6572604482015260640161049c565b600081815260076020526040902054819060ff1615156001146114ad5760405162461bcd60e51b815260206004820152603160248201527f546f6b656e50726556657374696e673a2056657374696e67207363686564756c6044820152706520646f6573206e6f742065786973747360781b606482015260840161049c565b6000818152600760208190526040909120015460ff16156115255760405162461bcd60e51b815260206004820152602c60248201527f546f6b656e50726556657374696e673a2056657374696e67207363686564756c60448201526b19481a5cc81c995d9bdad95960a21b606482015260840161049c565b6000828152600760205260409020600481015460ff1615156001146115b25760405162461bcd60e51b815260206004820152602960248201527f546f6b656e50726556657374696e673a2076657374696e67206973206e6f742060448201527f7265766f6361626c650000000000000000000000000000000000000000000000606482015260840161049c565b6040805161014081018252825460ff808216151583526001600160a01b0361010092839004166020840152600185015493830193909352600284015460608301526003840154608083015260048401548316151560a0830152600584015460c0830152600684015460e08301526007840154909216151591810191909152600882015461012082015260009061164790611d1d565b90508015611659576116598482610be3565b600061167683600601548460050154611e1e90919063ffffffff16565b6006549091506116869082611e1e565b6006555050600701805460ff191660011790555050565b60025460ff16156117165760405162461bcd60e51b815260206004820152603760248201527f546f6b656e50726556657374696e673a20496e636f6d696e67206465706f736960448201527f74732068617665206265656e2066696e616c697365642e000000000000000000606482015260840161049c565b6000546001600160a01b031633146117705760405162461bcd60e51b815260206004820181905260248201527f4f776e61626c653a2063616c6c6572206973206e6f7420746865206f776e6572604482015260640161049c565b8a8714801561177e57508685145b801561178957508483145b80156117955750815183145b6117e15760405162461bcd60e51b815260206004820181905260248201527f546f6b656e50726556657374696e673a204c656e677468206d69736d61746368604482015260640161049c565b60005b8b8110156118d3576118c18d8d83818110611801576118016124db565b90506020020160208101906118169190612143565b8c8c84818110611828576118286124db565b905060200201358b8b85818110611841576118416124db565b905060200201358a8a8681811061185a5761185a6124db565b90506020020135898987818110611873576118736124db565b905060200201602081019061188891906124f1565b88878151811061189a5761189a6124db565b60200260200101518888815181106118b4576118b46124db565b6020026020010151610637565b806118cb8161250e565b9150506117e4565b50505050505050505050505050565b600081815260076020526040812054829060ff1615156001146119615760405162461bcd60e51b815260206004820152603160248201527f546f6b656e50726556657374696e673a2056657374696e67207363686564756c6044820152706520646f6573206e6f742065786973747360781b606482015260840161049c565b6000818152600760208190526040909120015460ff16156119d95760405162461bcd60e51b815260206004820152602c60248201527f546f6b656e50726556657374696e673a2056657374696e67207363686564756c60448201526b19481a5cc81c995d9bdad95960a21b606482015260840161049c565b600083815260076020818152604092839020835161014081018552815460ff808216151583526001600160a01b03610100928390041694830194909452600183015495820195909552600282015460608201526003820154608082015260048201548316151560a0820152600582015460c0820152600682015460e0820152928101549091161515928201929092526008820154610120820152611a7c90611d1d565b949350505050565b6000546001600160a01b03163314611ade5760405162461bcd60e51b815260206004820181905260248201527f4f776e61626c653a2063616c6c6572206973206e6f7420746865206f776e6572604482015260640161049c565b6001600160a01b038116611b5a5760405162461bcd60e51b815260206004820152602660248201527f4f776e61626c653a206e6577206f776e657220697320746865207a65726f206160448201527f6464726573730000000000000000000000000000000000000000000000000000606482015260840161049c565b611b6381611e2a565b50565b611bcb60405180610140016040528060001515815260200160006001600160a01b031681526020016000815260200160008152602001600081526020016000151581526020016000815260200160008152602001600015158152602001600081525090565b60408051606085901b6bffffffffffffffffffffffff191660208083019190915260348083018690528351808403909101815260549092019092528051910120611c14906111d3565b9392505050565b6000611c2660055490565b8210611c805760405162461bcd60e51b8152602060048201526024808201527f546f6b656e50726556657374696e673a20696e646578206f7574206f6620626f604482015263756e647360e01b606482015260840161049c565b60058281548110611c9357611c936124db565b90600052602060002001549050919050565b604080516001600160a01b038416602482015260448082018490528251808303909101815260649091019091526020810180517bffffffffffffffffffffffffffffffffffffffffffffffffffffffff1663a9059cbb60e01b179052611d0c908490611e92565b505050565b6000611c148284612529565b600254600090610100900460ff16611d3757506000919050565b60408201516004544291611d4b9190611d11565b811080611d5f575061010083015115156001145b15611d6d5750600092915050565b6060830151600454611d7e91611d11565b8110611d975760e083015160c0840151611c1491611e1e565b6000611dae60045483611e1e90919063ffffffff16565b60808501519091506000611dc28383611f77565b90506000611dd08284611f83565b90506000611df98860600151611df3848b60c00151611f8390919063ffffffff16565b90611f77565b9050611e128860e0015182611e1e90919063ffffffff16565b98975050505050505050565b6000611c1482846124c4565b600080546001600160a01b038381167fffffffffffffffffffffffff0000000000000000000000000000000000000000831681178455604051919092169283917f8be0079c531659141344cd1fd0a4f28419497f9722a3daafe3b4186f6b6457e09190a35050565b6000611ee7826040518060400160405280602081526020017f5361666545524332303a206c6f772d6c6576656c2063616c6c206661696c6564815250856001600160a01b0316611f8f9092919063ffffffff16565b805190915015611d0c5780806020019051810190611f059190612541565b611d0c5760405162461bcd60e51b815260206004820152602a60248201527f5361666545524332303a204552433230206f7065726174696f6e20646964206e60448201527f6f74207375636365656400000000000000000000000000000000000000000000606482015260840161049c565b6000611c14828461255e565b6000611c148284612580565b6060611a7c848460008585843b611fe85760405162461bcd60e51b815260206004820152601d60248201527f416464726573733a2063616c6c20746f206e6f6e2d636f6e7472616374000000604482015260640161049c565b600080866001600160a01b0316858760405161200491906125cf565b60006040518083038185875af1925050503d8060008114612041576040519150601f19603f3d011682016040523d82523d6000602084013e612046565b606091505b5091509150612056828286612061565b979650505050505050565b60608315612070575081611c14565b8251156120805782518084602001fd5b8160405162461bcd60e51b815260040161049c91906125eb565b6000602082840312156120ac57600080fd5b5035919050565b80356001600160a01b03811681146120ca57600080fd5b919050565b8015158114611b6357600080fd5b600080600080600080600060e0888a0312156120f857600080fd5b612101886120b3565b96506020880135955060408801359450606088013593506080880135612126816120cf565b9699959850939692959460a0840135945060c09093013592915050565b60006020828403121561215557600080fd5b611c14826120b3565b6000806040838503121561217157600080fd5b50508035926020909101359150565b815115158152610140810160208301516121a560208401826001600160a01b03169052565b5060408301516040830152606083015160608301526080830151608083015260a08301516121d760a084018215159052565b5060c083015160c083015260e083015160e0830152610100808401516122008285018215159052565b505061012092830151919092015290565b6000806040838503121561222457600080fd5b61222d836120b3565b946020939093013593505050565b60008083601f84011261224d57600080fd5b50813567ffffffffffffffff81111561226557600080fd5b6020830191508360208260051b850101111561228057600080fd5b9250929050565b634e487b7160e01b600052604160045260246000fd5b600082601f8301126122ae57600080fd5b8135602067ffffffffffffffff808311156122cb576122cb612287565b8260051b604051601f19603f830116810181811084821117156122f0576122f0612287565b60405293845285810183019383810192508785111561230e57600080fd5b83870191505b8482101561205657813583529183019190830190612314565b60008060008060008060008060008060008060e08d8f03121561234f57600080fd5b67ffffffffffffffff8d35111561236557600080fd5b6123728e8e358f0161223b565b909c509a5067ffffffffffffffff60208e0135111561239057600080fd5b6123a08e60208f01358f0161223b565b909a50985067ffffffffffffffff60408e013511156123be57600080fd5b6123ce8e60408f01358f0161223b565b909850965067ffffffffffffffff60608e013511156123ec57600080fd5b6123fc8e60608f01358f0161223b565b909650945067ffffffffffffffff60808e0135111561241a57600080fd5b61242a8e60808f01358f0161223b565b909450925067ffffffffffffffff60a08e0135111561244857600080fd5b6124588e60a08f01358f0161229d565b915067ffffffffffffffff60c08e0135111561247357600080fd5b6124838e60c08f01358f0161229d565b90509295989b509295989b509295989b565b6000602082840312156124a757600080fd5b5051919050565b634e487b7160e01b600052601160045260246000fd5b6000828210156124d6576124d66124ae565b500390565b634e487b7160e01b600052603260045260246000fd5b60006020828403121561250357600080fd5b8135611c14816120cf565b6000600019821415612522576125226124ae565b5060010190565b6000821982111561253c5761253c6124ae565b500190565b60006020828403121561255357600080fd5b8151611c14816120cf565b60008261257b57634e487b7160e01b600052601260045260246000fd5b500490565b600081600019048311821515161561259a5761259a6124ae565b500290565b60005b838110156125ba5781810151838201526020016125a2565b838111156125c9576000848401525b50505050565b600082516125e181846020870161259f565b9190910192915050565b602081526000825180602084015261260a81604085016020870161259f565b601f01601f1916919091016040019291505056fea164736f6c6343000809000a60a060405234801561001057600080fd5b506040516118b93803806118b983398101604081905261002f91610132565b610038336100e2565b6001600160a01b0381166100c25760405162461bcd60e51b815260206004820152604160248201527f546f6b656e50726554696d656c6f636b3a205f65726332305f636f6e7472616360448201527f745f6164647265737320616464726573732063616e206e6f74206265207a65726064820152606f60f81b608482015260a40160405180910390fd5b6001600160a01b03166080526000805462ffffff60a01b19169055610162565b600080546001600160a01b038381166001600160a01b0319831681178455604051919092169283917f8be0079c531659141344cd1fd0a4f28419497f9722a3daafe3b4186f6b6457e09190a35050565b60006020828403121561014457600080fd5b81516001600160a01b038116811461015b57600080fd5b9392505050565b60805161172e61018b6000396000818161011c015281816104e00152610888015261172e6000f3fe608060405234801561001057600080fd5b50600436106101005760003560e01c8063715018a611610097578063a0a2b57311610066578063a0a2b5731461022d578063d148429814610240578063d6d1417114610253578063f2fde38b1461025c57600080fd5b8063715018a6146101e05780638da5cb5b146101e85780639aa2e39e146101f95780639b69279a1461021957600080fd5b80633e79d1e1116100d35780633e79d1e11461018d5780633e9949421461019657806355ce3866146101a957806366168bd7146101cd57600080fd5b8063199b6bba1461010557806321df0da71461011a57806327e235e31461015957806329cb924d14610187575b600080fd5b6101186101133660046114af565b61026f565b005b7f00000000000000000000000000000000000000000000000000000000000000005b6040516001600160a01b0390911681526020015b60405180910390f35b6101796101673660046114f0565b60046020526000908152604090205481565b604051908152602001610150565b42610179565b61017960025481565b6101186101a436600461150d565b610743565b6000546101bd90600160a81b900460ff1681565b6040519015158152602001610150565b6101186101db36600461150d565b610979565b610118610b4c565b6000546001600160a01b031661013c565b6101796102073660046114f0565b60036020526000908152604090205481565b6000546101bd90600160b01b900460ff1681565b61011861023b366004611539565b610bb2565b61011861024e36600461159e565b610ce3565b61017960015481565b61011861026a3660046114f0565b611051565b600054600160b01b900460ff1615156001146103035760405162461bcd60e51b815260206004820152604260248201527f546f6b656e50726554696d656c6f636b3a20506c65617365207365742074686560448201527f2074696d65207374616d702066697273742c207468656e207472792061676169606482015261371760f11b608482015260a4015b60405180910390fd5b600054600160a01b900460ff161561035d5760405162461bcd60e51b815260206004820181905260248201527f546f6b656e50726554696d656c6f636b3a204e6f2072652d656e7472616e637960448201526064016102fa565b6000805460ff60a01b1916600160a01b1790556001600160a01b0382166103d25760405162461bcd60e51b815260206004820152602360248201527f45524332303a207472616e7366657220746f20746865207a65726f206164647260448201526265737360e81b60648201526084016102fa565b6001600160a01b0382166000908152600460205260409020548111156104605760405162461bcd60e51b815260206004820152602d60248201527f496e73756666696369656e7420746f6b656e2062616c616e63652c207472792060448201527f6c657373657220616d6f756e740000000000000000000000000000000000000060648201526084016102fa565b336001600160a01b038316146104de5760405162461bcd60e51b815260206004820152602f60248201527f4f6e6c792074686520746f6b656e20726563697069656e742063616e2070657260448201527f666f726d2074686520756e6c6f636b000000000000000000000000000000000060648201526084016102fa565b7f00000000000000000000000000000000000000000000000000000000000000006001600160a01b0316836001600160a01b0316146105d15760405162461bcd60e51b815260206004820152607660248201527f546f6b656e50726554696d656c6f636b3a20546f6b656e20706172616d65746560448201527f72206d757374206265207468652073616d65206173207468652065726332302060648201527f636f6e747261637420616464726573732077686963682077617320706173736560848201527f6420696e746f2074686520636f6e7374727563746f720000000000000000000060a482015260c4016102fa565b600254421061069d576001600160a01b0382166000908152600360205260409020546105fd9082611133565b6001600160a01b03831660009081526003602090815260408083209390935560049052205461062c9082611146565b6001600160a01b038084166000908152600460205260409020919091556106569084168383611152565b604080516001600160a01b0384168152602081018390527fe7b379c6c1fa169e9079c25e9143b127637eef8ec8c9d5c06ddb4ab3e1195888910160405180910390a1610731565b60405162461bcd60e51b815260206004820152605160248201527f546f6b656e50726554696d656c6f636b3a20546f6b656e7320617265206f6e6c60448201527f7920617661696c61626c6520616674657220636f72726563742074696d65207060648201527f6572696f642068617320656c6170736564000000000000000000000000000000608482015260a4016102fa565b50506000805460ff60a01b1916905550565b6000546001600160a01b0316331461079d5760405162461bcd60e51b815260206004820181905260248201527f4f776e61626c653a2063616c6c6572206973206e6f7420746865206f776e657260448201526064016102fa565b600054600160a01b900460ff16156107f75760405162461bcd60e51b815260206004820181905260248201527f546f6b656e50726554696d656c6f636b3a204e6f2072652d656e7472616e637960448201526064016102fa565b6000805460ff60a01b1916600160a01b1790556001600160a01b0382166108865760405162461bcd60e51b815260206004820152602f60248201527f546f6b656e50726554696d656c6f636b3a20546f6b656e20616464726573732060448201527f63616e206e6f74206265207a65726f000000000000000000000000000000000060648201526084016102fa565b7f00000000000000000000000000000000000000000000000000000000000000006001600160a01b0316826001600160a01b031614156109545760405162461bcd60e51b815260206004820152605e60248201527f546f6b656e50726554696d656c6f636b3a20546f6b656e20616464726573732060448201527f63616e206e6f742062652045524332302061646472657373207768696368207760648201527f61732070617373656420696e746f2074686520636f6e7374727563746f720000608482015260a4016102fa565b6109686001600160a01b0383163383611152565b50506000805460ff60a01b19169055565b6000546001600160a01b031633146109d35760405162461bcd60e51b815260206004820181905260248201527f4f776e61626c653a2063616c6c6572206973206e6f7420746865206f776e657260448201526064016102fa565b600054600160a81b900460ff1615610a535760405162461bcd60e51b815260206004820152603860248201527f546f6b656e50726554696d656c6f636b3a20496e636f6d696e67206465706f7360448201527f6974732068617665206265656e2066696e616c697365642e000000000000000060648201526084016102fa565b6001600160a01b038216610acf5760405162461bcd60e51b815260206004820152603560248201527f546f6b656e50726554696d656c6f636b3a2045524332303a207472616e73666560448201527f7220746f20746865207a65726f2061646472657373000000000000000000000060648201526084016102fa565b6001600160a01b038216600090815260046020526040902054610af29082611133565b6001600160a01b0383166000818152600460209081526040918290209390935580519182529181018390527fcad22dd3bcdad18c651a372fe3e7e893af3d354482d9ac6c310c8342eb7af574910160405180910390a15050565b6000546001600160a01b03163314610ba65760405162461bcd60e51b815260206004820181905260248201527f4f776e61626c653a2063616c6c6572206973206e6f7420746865206f776e657260448201526064016102fa565b610bb060006111be565b565b6000546001600160a01b03163314610c0c5760405162461bcd60e51b815260206004820181905260248201527f4f776e61626c653a2063616c6c6572206973206e6f7420746865206f776e657260448201526064016102fa565b600054600160b01b900460ff1615610c8c5760405162461bcd60e51b815260206004820152603660248201527f546f6b656e50726554696d656c6f636b3a205468652074696d65207374616d7060448201527f2068617320616c7265616479206265656e207365742e0000000000000000000060648201526084016102fa565b600080547fffffffffffffffffff0000ffffffffffffffffffffffffffffffffffffffffff16760101000000000000000000000000000000000000000000179055426001819055610cdd9082611133565b60025550565b6000546001600160a01b03163314610d3d5760405162461bcd60e51b815260206004820181905260248201527f4f776e61626c653a2063616c6c6572206973206e6f7420746865206f776e657260448201526064016102fa565b600054600160a81b900460ff1615610dbd5760405162461bcd60e51b815260206004820152603860248201527f546f6b656e50726554696d656c6f636b3a20496e636f6d696e67206465706f7360448201527f6974732068617665206265656e2066696e616c697365642e000000000000000060648201526084016102fa565b828114610e585760405162461bcd60e51b815260206004820152605360248201527f546f6b656e50726554696d656c6f636b3a2054686520726563697069656e747360448201527f20616e6420616d6f756e747320617272617973206d757374206265207468652060648201527f73616d652073697a6520696e206c656e67746800000000000000000000000000608482015260a4016102fa565b60005b8381101561104a576000858583818110610e7757610e7761160a565b9050602002016020810190610e8c91906114f0565b6001600160a01b03161415610f095760405162461bcd60e51b815260206004820152603560248201527f546f6b656e50726554696d656c6f636b3a2045524332303a207472616e73666560448201527f7220746f20746865207a65726f2061646472657373000000000000000000000060648201526084016102fa565b610f70838383818110610f1e57610f1e61160a565b9050602002013560046000888886818110610f3b57610f3b61160a565b9050602002016020810190610f5091906114f0565b6001600160a01b0316815260208101919091526040016000205490611133565b60046000878785818110610f8657610f8661160a565b9050602002016020810190610f9b91906114f0565b6001600160a01b031681526020810191909152604001600020557fcad22dd3bcdad18c651a372fe3e7e893af3d354482d9ac6c310c8342eb7af574858583818110610fe857610fe861160a565b9050602002016020810190610ffd91906114f0565b84848481811061100f5761100f61160a565b604080516001600160a01b0390951685526020918202939093013590840152500160405180910390a18061104281611636565b915050610e5b565b5050505050565b6000546001600160a01b031633146110ab5760405162461bcd60e51b815260206004820181905260248201527f4f776e61626c653a2063616c6c6572206973206e6f7420746865206f776e657260448201526064016102fa565b6001600160a01b0381166111275760405162461bcd60e51b815260206004820152602660248201527f4f776e61626c653a206e6577206f776e657220697320746865207a65726f206160448201527f646472657373000000000000000000000000000000000000000000000000000060648201526084016102fa565b611130816111be565b50565b600061113f8284611651565b9392505050565b600061113f8284611669565b604080516001600160a01b038416602482015260448082018490528251808303909101815260649091019091526020810180517bffffffffffffffffffffffffffffffffffffffffffffffffffffffff1663a9059cbb60e01b1790526111b9908490611226565b505050565b600080546001600160a01b038381167fffffffffffffffffffffffff0000000000000000000000000000000000000000831681178455604051919092169283917f8be0079c531659141344cd1fd0a4f28419497f9722a3daafe3b4186f6b6457e09190a35050565b600061127b826040518060400160405280602081526020017f5361666545524332303a206c6f772d6c6576656c2063616c6c206661696c6564815250856001600160a01b031661130b9092919063ffffffff16565b8051909150156111b957808060200190518101906112999190611680565b6111b95760405162461bcd60e51b815260206004820152602a60248201527f5361666545524332303a204552433230206f7065726174696f6e20646964206e60448201527f6f7420737563636565640000000000000000000000000000000000000000000060648201526084016102fa565b606061131a8484600085611322565b949350505050565b60608247101561139a5760405162461bcd60e51b815260206004820152602660248201527f416464726573733a20696e73756666696369656e742062616c616e636520666f60448201527f722063616c6c000000000000000000000000000000000000000000000000000060648201526084016102fa565b843b6113e85760405162461bcd60e51b815260206004820152601d60248201527f416464726573733a2063616c6c20746f206e6f6e2d636f6e747261637400000060448201526064016102fa565b600080866001600160a01b0316858760405161140491906116d2565b60006040518083038185875af1925050503d8060008114611441576040519150601f19603f3d011682016040523d82523d6000602084013e611446565b606091505b5091509150611456828286611461565b979650505050505050565b6060831561147057508161113f565b8251156114805782518084602001fd5b8160405162461bcd60e51b81526004016102fa91906116ee565b6001600160a01b038116811461113057600080fd5b6000806000606084860312156114c457600080fd5b83356114cf8161149a565b925060208401356114df8161149a565b929592945050506040919091013590565b60006020828403121561150257600080fd5b813561113f8161149a565b6000806040838503121561152057600080fd5b823561152b8161149a565b946020939093013593505050565b60006020828403121561154b57600080fd5b5035919050565b60008083601f84011261156457600080fd5b50813567ffffffffffffffff81111561157c57600080fd5b6020830191508360208260051b850101111561159757600080fd5b9250929050565b600080600080604085870312156115b457600080fd5b843567ffffffffffffffff808211156115cc57600080fd5b6115d888838901611552565b909650945060208701359150808211156115f157600080fd5b506115fe87828801611552565b95989497509550505050565b634e487b7160e01b600052603260045260246000fd5b634e487b7160e01b600052601160045260246000fd5b600060001982141561164a5761164a611620565b5060010190565b6000821982111561166457611664611620565b500190565b60008282101561167b5761167b611620565b500390565b60006020828403121561169257600080fd5b8151801515811461113f57600080fd5b60005b838110156116bd5781810151838201526020016116a5565b838111156116cc576000848401525b50505050565b600082516116e48184602087016116a2565b9190910192915050565b602081526000825180602084015261170d8160408501602087016116a2565b601f01601f1916919091016040019291505056fea164736f6c6343000809000a"
}